{
  "contractName": "CarbonCap",
  "abi": [
    {
      "inputs": [],
      "stateMutability": "payable",
      "type": "constructor",
      "payable": true
    },
    {
      "anonymous": false,
      "inputs": [
        {
          "indexed": true,
          "internalType": "address",
          "name": "buyer",
          "type": "address"
        },
        {
          "indexed": true,
          "internalType": "address",
          "name": "organization",
          "type": "address"
        },
        {
          "indexed": false,
          "internalType": "uint256",
          "name": "amount",
          "type": "uint256"
        }
      ],
      "name": "CreditsPurchased",
      "type": "event"
    },
    {
      "anonymous": false,
      "inputs": [
        {
          "indexed": true,
          "internalType": "address",
          "name": "payer",
          "type": "address"
        },
        {
          "indexed": false,
          "internalType": "uint256",
          "name": "amount",
          "type": "uint256"
        }
      ],
      "name": "RegistrationFeePaid",
      "type": "event"
    },
    {
      "inputs": [
        {
          "internalType": "address",
          "name": "",
          "type": "address"
        }
      ],
      "name": "availableCredits",
      "outputs": [
        {
          "internalType": "uint256",
          "name": "amount",
          "type": "uint256"
        },
        {
          "internalType": "address",
          "name": "organization",
          "type": "address"
        }
      ],
      "stateMutability": "view",
      "type": "function",
      "constant": true
    },
    {
      "inputs": [
        {
          "internalType": "address",
          "name": "",
          "type": "address"
        }
      ],
      "name": "certifiedOrganizations",
      "outputs": [
        {
          "internalType": "bool",
          "name": "",
          "type": "bool"
        }
      ],
      "stateMutability": "view",
      "type": "function",
      "constant": true
    },
    {
      "inputs": [
        {
          "internalType": "address",
          "name": "",
          "type": "address"
        },
        {
          "internalType": "uint256",
          "name": "",
          "type": "uint256"
        }
      ],
      "name": "factoryEmissions",
      "outputs": [
        {
          "internalType": "uint256",
          "name": "emissions",
          "type": "uint256"
        },
        {
          "internalType": "bool",
          "name": "dataSubmitted",
          "type": "bool"
        },
        {
          "internalType": "address",
          "name": "verifier",
          "type": "address"
        },
        {
          "internalType": "bool",
          "name": "verified",
          "type": "bool"
        },
        {
          "internalType": "uint256",
          "name": "timestamp",
          "type": "uint256"
        }
      ],
      "stateMutability": "view",
      "type": "function",
      "constant": true
    },
    {
      "inputs": [],
      "name": "governmentBody",
      "outputs": [
        {
          "internalType": "address payable",
          "name": "",
          "type": "address"
        }
      ],
      "stateMutability": "view",
      "type": "function",
      "constant": true
    },
    {
      "inputs": [
        {
          "internalType": "uint256",
          "name": "",
          "type": "uint256"
        }
      ],
      "name": "registeredFactories",
      "outputs": [
        {
          "internalType": "address payable",
          "name": "",
          "type": "address"
        }
      ],
      "stateMutability": "view",
      "type": "function",
      "constant": true
    },
    {
      "inputs": [
        {
          "internalType": "uint256",
          "name": "",
          "type": "uint256"
        }
      ],
      "name": "registeredOrganizations",
      "outputs": [
        {
          "internalType": "address payable",
          "name": "",
          "type": "address"
        }
      ],
      "stateMutability": "view",
      "type": "function",
      "constant": true
    },
    {
      "inputs": [],
      "name": "registrationFee",
      "outputs": [
        {
          "internalType": "uint256",
          "name": "",
          "type": "uint256"
        }
      ],
      "stateMutability": "view",
      "type": "function",
      "constant": true
    },
    {
      "inputs": [],
      "name": "registrationFeeFinalized",
      "outputs": [
        {
          "internalType": "bool",
          "name": "",
          "type": "bool"
        }
      ],
      "stateMutability": "view",
      "type": "function",
      "constant": true
    },
    {
      "inputs": [
        {
          "internalType": "address",
          "name": "",
          "type": "address"
        }
      ],
      "name": "registrationFeesPaid",
      "outputs": [
        {
          "internalType": "uint256",
          "name": "",
          "type": "uint256"
        }
      ],
      "stateMutability": "view",
      "type": "function",
      "constant": true
    },
    {
      "inputs": [
        {
          "internalType": "address",
          "name": "factory",
          "type": "address"
        }
      ],
      "name": "registerFactory",
      "outputs": [],
      "stateMutability": "nonpayable",
      "type": "function"
    },
    {
      "inputs": [
        {
          "internalType": "uint256",
          "name": "emissions",
          "type": "uint256"
        }
      ],
      "name": "recordEmissions",
      "outputs": [],
      "stateMutability": "nonpayable",
      "type": "function"
    },
    {
      "inputs": [
        {
          "internalType": "address",
          "name": "factory",
          "type": "address"
        },
        {
          "internalType": "uint256",
          "name": "dataIndex",
          "type": "uint256"
        }
      ],
      "name": "verifyEmissions",
      "outputs": [],
      "stateMutability": "nonpayable",
      "type": "function"
    },
    {
      "inputs": [
        {
          "internalType": "address",
          "name": "factory",
          "type": "address"
        }
      ],
      "name": "getTotalEmissions",
      "outputs": [
        {
          "internalType": "uint256",
          "name": "totalEmissions",
          "type": "uint256"
        }
      ],
      "stateMutability": "view",
      "type": "function",
      "constant": true
    },
    {
      "inputs": [
        {
          "internalType": "address",
          "name": "factory",
          "type": "address"
        }
      ],
      "name": "getAvailableCredits",
      "outputs": [
        {
          "internalType": "uint256",
          "name": "creditsAvailable",
          "type": "uint256"
        }
      ],
      "stateMutability": "view",
      "type": "function",
      "constant": true
    },
    {
      "inputs": [
        {
          "internalType": "uint256",
          "name": "fee",
          "type": "uint256"
        }
      ],
      "name": "setRegistrationFee",
      "outputs": [],
      "stateMutability": "nonpayable",
      "type": "function"
    },
    {
      "inputs": [],
      "name": "payRegistrationFee",
      "outputs": [],
      "stateMutability": "payable",
      "type": "function",
      "payable": true
    },
    {
      "inputs": [
        {
          "internalType": "address payable",
          "name": "organization",
          "type": "address"
        },
        {
          "internalType": "uint256",
          "name": "creditsAmount",
          "type": "uint256"
        }
      ],
      "name": "buyCreditsFromOrganization",
      "outputs": [],
      "stateMutability": "nonpayable",
      "type": "function"
    },
    {
      "inputs": [
        {
          "internalType": "uint256",
          "name": "amount",
          "type": "uint256"
        }
      ],
      "name": "withdrawEther",
      "outputs": [],
      "stateMutability": "nonpayable",
      "type": "function"
    },
    {
      "inputs": [
        {
          "internalType": "address",
          "name": "organization",
          "type": "address"
        }
      ],
      "name": "certifyOrganization",
      "outputs": [],
      "stateMutability": "nonpayable",
      "type": "function"
    }
  ],
  "bytecode": "0x6080604052336000806101000a81548173ffffffffffffffffffffffffffffffffffffffff021916908373ffffffffffffffffffffffffffffffffffffffff1602179055506121ef806100536000396000f3fe6080604052600436106101145760003560e01c8063783ff1f1116100a0578063c9a89f1111610064578063c9a89f1114610393578063d10de84e146103d0578063deb90114146103f9578063e5e5ef8814610436578063e98c59cc1461047357610114565b8063783ff1f1146102b05780637f66d304146102d95780637f8a878f14610302578063b065a8e51461032d578063c320c7271461036a57610114565b80632432c0f1116100e75780632432c0f1146101ec5780633bed33ce146101f657806344de35951461021f5780635b1c3ce91461024a5780637795ede41461028757610114565b806304671123146101195780630df2ec7c1461015757806313bfa35b1461019857806314c44e09146101c1575b600080fd5b34801561012557600080fd5b50610140600480360381019061013b9190611723565b6104b0565b60405161014e929190611778565b60405180910390f35b34801561016357600080fd5b5061017e600480360381019061017991906117cd565b6104f4565b60405161018f959493929190611828565b60405180910390f35b3480156101a457600080fd5b506101bf60048036038101906101ba919061187b565b610581565b005b3480156101cd57600080fd5b506101d6610836565b6040516101e391906118a8565b60405180910390f35b6101f461083c565b005b34801561020257600080fd5b5061021d6004803603810190610218919061187b565b6109d7565b005b34801561022b57600080fd5b50610234610b12565b60405161024191906118c3565b60405180910390f35b34801561025657600080fd5b50610271600480360381019061026c9190611723565b610b25565b60405161027e91906118a8565b60405180910390f35b34801561029357600080fd5b506102ae60048036038101906102a99190611723565b610b3d565b005b3480156102bc57600080fd5b506102d760048036038101906102d29190611723565b610cd8565b005b3480156102e557600080fd5b5061030060048036038101906102fb919061191c565b610dcc565b005b34801561030e57600080fd5b506103176110c2565b604051610324919061196b565b60405180910390f35b34801561033957600080fd5b50610354600480360381019061034f9190611723565b6110e6565b60405161036191906118a8565b60405180910390f35b34801561037657600080fd5b50610391600480360381019061038c919061187b565b611132565b005b34801561039f57600080fd5b506103ba60048036038101906103b5919061187b565b611228565b6040516103c7919061196b565b60405180910390f35b3480156103dc57600080fd5b506103f760048036038101906103f291906117cd565b611267565b005b34801561040557600080fd5b50610420600480360381019061041b919061187b565b611460565b60405161042d919061196b565b60405180910390f35b34801561044257600080fd5b5061045d60048036038101906104589190611723565b61149f565b60405161046a91906118c3565b60405180910390f35b34801561047f57600080fd5b5061049a60048036038101906104959190611723565b6114bf565b6040516104a791906118a8565b60405180910390f35b60046020528060005260406000206000915090508060000154908060010160009054906101000a900473ffffffffffffffffffffffffffffffffffffffff16905082565b6003602052816000526040600020818154811061051057600080fd5b9060005260206000209060030201600091509150508060000154908060010160009054906101000a900460ff16908060010160019054906101000a900473ffffffffffffffffffffffffffffffffffffffff16908060010160159054906101000a900460ff16908060020154905085565b61058a33611612565b6105c9576040517f08c379a00000000000000000000000000000000000000000000000000000000081526004016105c090611a09565b60405180910390fd5b6000811161060c576040517f08c379a000000000000000000000000000000000000000000000000000000000815260040161060390611a9b565b60405180910390fd5b80600460003373ffffffffffffffffffffffffffffffffffffffff1673ffffffffffffffffffffffffffffffffffffffff168152602001908152602001600020600001541015610691576040517f08c379a000000000000000000000000000000000000000000000000000000000815260040161068890611b07565b60405180910390fd5b80600460003373ffffffffffffffffffffffffffffffffffffffff1673ffffffffffffffffffffffffffffffffffffffff16815260200190815260200160002060000160008282546106e39190611b56565b92505081905550600360003373ffffffffffffffffffffffffffffffffffffffff1673ffffffffffffffffffffffffffffffffffffffff1681526020019081526020016000206040518060a00160405280838152602001600115158152602001600073ffffffffffffffffffffffffffffffffffffffff1681526020016000151581526020014281525090806001815401808255809150506001900390600052602060002090600302016000909190919091506000820151816000015560208201518160010160006101000a81548160ff02191690831515021790555060408201518160010160016101000a81548173ffffffffffffffffffffffffffffffffffffffff021916908373ffffffffffffffffffffffffffffffffffffffff16021790555060608201518160010160156101000a81548160ff02191690831515021790555060808201518160020155505050565b60075481565b600560003373ffffffffffffffffffffffffffffffffffffffff1673ffffffffffffffffffffffffffffffffffffffff16815260200190815260200160002060009054906101000a900460ff166108c8576040517f08c379a00000000000000000000000000000000000000000000000000000000081526004016108bf90611bfc565b60405180910390fd5b34600660003373ffffffffffffffffffffffffffffffffffffffff1673ffffffffffffffffffffffffffffffffffffffff16815260200190815260200160002060008282546109179190611c1c565b9250508190555060008054906101000a900473ffffffffffffffffffffffffffffffffffffffff1673ffffffffffffffffffffffffffffffffffffffff166108fc6007549081150290604051600060405180830381858888f19350505050158015610986573d6000803e3d6000fd5b503373ffffffffffffffffffffffffffffffffffffffff167f7111f0e8e9dcc93b06ab6bf56fd094a95f76a198a82b93ed856b451053f235b1346040516109cd91906118a8565b60405180910390a2565b60008054906101000a900473ffffffffffffffffffffffffffffffffffffffff1673ffffffffffffffffffffffffffffffffffffffff163373ffffffffffffffffffffffffffffffffffffffff1614610a65576040517f08c379a0000000000000000000000000000000000000000000000000000000008152600401610a5c90611cc2565b60405180910390fd5b47811115610aa8576040517f08c379a0000000000000000000000000000000000000000000000000000000008152600401610a9f90611d2e565b60405180910390fd5b60008054906101000a900473ffffffffffffffffffffffffffffffffffffffff1673ffffffffffffffffffffffffffffffffffffffff166108fc829081150290604051600060405180830381858888f19350505050158015610b0e573d6000803e3d6000fd5b5050565b600860009054906101000a900460ff1681565b60066020528060005260406000206000915090505481565b60008054906101000a900473ffffffffffffffffffffffffffffffffffffffff1673ffffffffffffffffffffffffffffffffffffffff163373ffffffffffffffffffffffffffffffffffffffff1614610bcb576040517f08c379a0000000000000000000000000000000000000000000000000000000008152600401610bc290611cc2565b60405180910390fd5b600860009054906101000a900460ff16610c1a576040517f08c379a0000000000000000000000000000000000000000000000000000000008152600401610c1190611dc0565b60405180910390fd5b6001600560008373ffffffffffffffffffffffffffffffffffffffff1673ffffffffffffffffffffffffffffffffffffffff16815260200190815260200160002060006101000a81548160ff0219169083151502179055506002819080600181540180825580915050600190039060005260206000200160009091909190916101000a81548173ffffffffffffffffffffffffffffffffffffffff021916908373ffffffffffffffffffffffffffffffffffffffff16021790555050565b60008054906101000a900473ffffffffffffffffffffffffffffffffffffffff1673ffffffffffffffffffffffffffffffffffffffff163373ffffffffffffffffffffffffffffffffffffffff1614610d66576040517f08c379a0000000000000000000000000000000000000000000000000000000008152600401610d5d90611cc2565b60405180910390fd5b6001819080600181540180825580915050600190039060005260206000200160009091909190916101000a81548173ffffffffffffffffffffffffffffffffffffffff021916908373ffffffffffffffffffffffffffffffffffffffff16021790555050565b610dd533611612565b610e14576040517f08c379a0000000000000000000000000000000000000000000000000000000008152600401610e0b90611a09565b60405180910390fd5b600560008373ffffffffffffffffffffffffffffffffffffffff1673ffffffffffffffffffffffffffffffffffffffff16815260200190815260200160002060009054906101000a900460ff16610ea0576040517f08c379a0000000000000000000000000000000000000000000000000000000008152600401610e9790611e2c565b60405180910390fd5b60008111610ee3576040517f08c379a0000000000000000000000000000000000000000000000000000000008152600401610eda90611ebe565b60405180910390fd5b6000600282610ef29190611ede565b905080471015610f37576040517f08c379a0000000000000000000000000000000000000000000000000000000008152600401610f2e90611f92565b60405180910390fd5b8273ffffffffffffffffffffffffffffffffffffffff166108fc829081150290604051600060405180830381858888f19350505050158015610f7d573d6000803e3d6000fd5b5081600460003373ffffffffffffffffffffffffffffffffffffffff1673ffffffffffffffffffffffffffffffffffffffff1681526020019081526020016000206000016000828254610fd09190611c1c565b9250508190555082600460003373ffffffffffffffffffffffffffffffffffffffff1673ffffffffffffffffffffffffffffffffffffffff16815260200190815260200160002060010160006101000a81548173ffffffffffffffffffffffffffffffffffffffff021916908373ffffffffffffffffffffffffffffffffffffffff1602179055508273ffffffffffffffffffffffffffffffffffffffff163373ffffffffffffffffffffffffffffffffffffffff167f04297192211dd6ce4c4f2aac1d314a51360598d084022b5e7a4148b2dabc9898846040516110b591906118a8565b60405180910390a3505050565b60008054906101000a900473ffffffffffffffffffffffffffffffffffffffff1681565b6000600460008373ffffffffffffffffffffffffffffffffffffffff1673ffffffffffffffffffffffffffffffffffffffff168152602001908152602001600020600001549050919050565b60008054906101000a900473ffffffffffffffffffffffffffffffffffffffff1673ffffffffffffffffffffffffffffffffffffffff163373ffffffffffffffffffffffffffffffffffffffff16146111c0576040517f08c379a00000000000000000000000000000000000000000000000000000000081526004016111b790611cc2565b60405180910390fd5b60008111611203576040517f08c379a00000000000000000000000000000000000000000000000000000000081526004016111fa90612024565b60405180910390fd5b806007819055506001600860006101000a81548160ff02191690831515021790555050565b6002818154811061123857600080fd5b906000526020600020016000915054906101000a900473ffffffffffffffffffffffffffffffffffffffff1681565b60008054906101000a900473ffffffffffffffffffffffffffffffffffffffff1673ffffffffffffffffffffffffffffffffffffffff163373ffffffffffffffffffffffffffffffffffffffff16146112f5576040517f08c379a00000000000000000000000000000000000000000000000000000000081526004016112ec90611cc2565b60405180910390fd5b6000600360008473ffffffffffffffffffffffffffffffffffffffff1673ffffffffffffffffffffffffffffffffffffffff168152602001908152602001600020828154811061134857611347612044565b5b906000526020600020906003020190508060010160009054906101000a900460ff166113a9576040517f08c379a00000000000000000000000000000000000000000000000000000000081526004016113a0906120e5565b60405180910390fd5b8060010160159054906101000a900460ff16156113fb576040517f08c379a00000000000000000000000000000000000000000000000000000000081526004016113f290612151565b60405180910390fd5b338160010160016101000a81548173ffffffffffffffffffffffffffffffffffffffff021916908373ffffffffffffffffffffffffffffffffffffffff16021790555060018160010160156101000a81548160ff021916908315150217905550505050565b6001818154811061147057600080fd5b906000526020600020016000915054906101000a900473ffffffffffffffffffffffffffffffffffffffff1681565b60056020528060005260406000206000915054906101000a900460ff1681565b600080600360008473ffffffffffffffffffffffffffffffffffffffff1673ffffffffffffffffffffffffffffffffffffffff16815260200190815260200160002080549050905060005b8181101561160b57600360008573ffffffffffffffffffffffffffffffffffffffff1673ffffffffffffffffffffffffffffffffffffffff168152602001908152602001600020818154811061156357611562612044565b5b906000526020600020906003020160010160159054906101000a900460ff16156115f857600360008573ffffffffffffffffffffffffffffffffffffffff1673ffffffffffffffffffffffffffffffffffffffff16815260200190815260200160002081815481106115d8576115d7612044565b5b906000526020600020906003020160000154836115f59190611c1c565b92505b808061160390612171565b91505061150a565b5050919050565b600080600090505b6001805490508110156116b5578273ffffffffffffffffffffffffffffffffffffffff166001828154811061165257611651612044565b5b9060005260206000200160009054906101000a900473ffffffffffffffffffffffffffffffffffffffff1673ffffffffffffffffffffffffffffffffffffffff16036116a25760019150506116bb565b80806116ad90612171565b91505061161a565b50600090505b919050565b600080fd5b600073ffffffffffffffffffffffffffffffffffffffff82169050919050565b60006116f0826116c5565b9050919050565b611700816116e5565b811461170b57600080fd5b50565b60008135905061171d816116f7565b92915050565b600060208284031215611739576117386116c0565b5b60006117478482850161170e565b91505092915050565b6000819050919050565b61176381611750565b82525050565b611772816116e5565b82525050565b600060408201905061178d600083018561175a565b61179a6020830184611769565b9392505050565b6117aa81611750565b81146117b557600080fd5b50565b6000813590506117c7816117a1565b92915050565b600080604083850312156117e4576117e36116c0565b5b60006117f28582860161170e565b9250506020611803858286016117b8565b9150509250929050565b60008115159050919050565b6118228161180d565b82525050565b600060a08201905061183d600083018861175a565b61184a6020830187611819565b6118576040830186611769565b6118646060830185611819565b611871608083018461175a565b9695505050505050565b600060208284031215611891576118906116c0565b5b600061189f848285016117b8565b91505092915050565b60006020820190506118bd600083018461175a565b92915050565b60006020820190506118d86000830184611819565b92915050565b60006118e9826116c5565b9050919050565b6118f9816118de565b811461190457600080fd5b50565b600081359050611916816118f0565b92915050565b60008060408385031215611933576119326116c0565b5b600061194185828601611907565b9250506020611952858286016117b8565b9150509250929050565b611965816118de565b82525050565b6000602082019050611980600083018461195c565b92915050565b600082825260208201905092915050565b7f4f6e6c79207265676973746572656420666163746f726965732063616e20706560008201527f72666f726d207468697320616374696f6e2e0000000000000000000000000000602082015250565b60006119f3603283611986565b91506119fe82611997565b604082019050919050565b60006020820190508181036000830152611a22816119e6565b9050919050565b7f456d697373696f6e732064617461206d7573742062652067726561746572207460008201527f68616e207a65726f204d54434f32652e00000000000000000000000000000000602082015250565b6000611a85603083611986565b9150611a9082611a29565b604082019050919050565b60006020820190508181036000830152611ab481611a78565b9050919050565b7f496e73756666696369656e7420617661696c61626c6520637265646974732e00600082015250565b6000611af1601f83611986565b9150611afc82611abb565b602082019050919050565b60006020820190508181036000830152611b2081611ae4565b9050919050565b7f4e487b7100000000000000000000000000000000000000000000000000000000600052601160045260246000fd5b6000611b6182611750565b9150611b6c83611750565b9250828203905081811115611b8457611b83611b27565b5b92915050565b7f4f6e6c792072656769737465726564206f7267616e697a6174696f6e7320636160008201527f6e20706572666f726d207468697320616374696f6e2e00000000000000000000602082015250565b6000611be6603683611986565b9150611bf182611b8a565b604082019050919050565b60006020820190508181036000830152611c1581611bd9565b9050919050565b6000611c2782611750565b9150611c3283611750565b9250828201905080821115611c4a57611c49611b27565b5b92915050565b7f4f6e6c7920676f7665726e6d656e7420626f64792063616e20706572666f726d60008201527f207468697320616374696f6e2e00000000000000000000000000000000000000602082015250565b6000611cac602d83611986565b9150611cb782611c50565b604082019050919050565b60006020820190508181036000830152611cdb81611c9f565b9050919050565b7f496e73756666696369656e7420636f6e74726163742062616c616e63652e0000600082015250565b6000611d18601e83611986565b9150611d2382611ce2565b602082019050919050565b60006020820190508181036000830152611d4781611d0b565b9050919050565b7f526567697374726174696f6e20666565206973206e6f742066696e616c697a6560008201527f64207965742e0000000000000000000000000000000000000000000000000000602082015250565b6000611daa602683611986565b9150611db582611d4e565b604082019050919050565b60006020820190508181036000830152611dd981611d9d565b9050919050565b7f4f7267616e697a6174696f6e206973206e6f74206365727469666965642e0000600082015250565b6000611e16601e83611986565b9150611e2182611de0565b602082019050919050565b60006020820190508181036000830152611e4581611e09565b9050919050565b7f4372656469747320616d6f756e742073686f756c64206265206772656174657260008201527f207468616e207a65726f2e000000000000000000000000000000000000000000602082015250565b6000611ea8602b83611986565b9150611eb382611e4c565b604082019050919050565b60006020820190508181036000830152611ed781611e9b565b9050919050565b6000611ee982611750565b9150611ef483611750565b9250828202611f0281611750565b91508282048414831517611f1957611f18611b27565b5b5092915050565b7f496e73756666696369656e742045746865722062616c616e636520696e20746860008201527f6520636f6e74726163742e000000000000000000000000000000000000000000602082015250565b6000611f7c602b83611986565b9150611f8782611f20565b604082019050919050565b60006020820190508181036000830152611fab81611f6f565b9050919050565b7f526567697374726174696f6e206665652073686f756c6420626520677265617460008201527f6572207468616e207a65726f2e00000000000000000000000000000000000000602082015250565b600061200e602d83611986565b915061201982611fb2565b604082019050919050565b6000602082019050818103600083015261203d81612001565b9050919050565b7f4e487b7100000000000000000000000000000000000000000000000000000000600052603260045260246000fd5b7f4e6f20656d697373696f6e732064617461207375626d6974746564206174207460008201527f68697320696e6465782e00000000000000000000000000000000000000000000602082015250565b60006120cf602a83611986565b91506120da82612073565b604082019050919050565b600060208201905081810360008301526120fe816120c2565b9050919050565b7f456d697373696f6e73206461746120616c72656164792076657269666965642e600082015250565b600061213b602083611986565b915061214682612105565b602082019050919050565b6000602082019050818103600083015261216a8161212e565b9050919050565b600061217c82611750565b91507fffffffffffffffffffffffffffffffffffffffffffffffffffffffffffffffff82036121ae576121ad611b27565b5b60018201905091905056fea2646970667358221220fd19918c3cb617a4f0dc7eeadad8926099db2cf95b1486b53337356ee81d825964736f6c63430008150033",
  "immutableReferences": {},
  "source": "// SPDX-License-Identifier: GPL-3.0\r\npragma solidity ^0.8.0;\r\n\r\n/**\r\n * @title CarbonCap\r\n * @dev Manages emissions monitoring and carbon credit transactions for factories.\r\n */\r\ncontract CarbonCap {\r\n    // Structure to store emissions data for a factory\r\n    struct EmissionsData {\r\n        uint emissions; // Emissions in metric tons of carbon dioxide equivalent (MTCO2e)\r\n        bool dataSubmitted; // Indicates if emissions data is submitted\r\n        address verifier; // Address of the entity verifying the emissions data\r\n        bool verified; // Indicates if emissions data is verified\r\n        uint timestamp; // Timestamp when emissions data is recorded\r\n    }\r\n\r\n    // Structure to represent carbon credits\r\n    struct CarbonCredit {\r\n        uint amount; // Amount of carbon credits in MTCO2e\r\n        address organization; // Organization providing carbon credits\r\n    }\r\n\r\n    address payable public governmentBody;\r\n    address payable[] public registeredFactories;\r\n    address payable[] public registeredOrganizations;\r\n\r\n    mapping(address => EmissionsData[]) public factoryEmissions;\r\n    mapping(address => CarbonCredit) public availableCredits;\r\n    mapping(address => bool) public certifiedOrganizations;\r\n    mapping(address => uint) public registrationFeesPaid;\r\n\r\n    uint public registrationFee;\r\n    bool public registrationFeeFinalized;\r\n\r\n    event RegistrationFeePaid(address indexed payer, uint amount);\r\n    event CreditsPurchased(address indexed buyer, address indexed organization, uint amount);\r\n\r\n    // Modifier to check if the registration fee is finalized\r\n    modifier registrationFeeIsFinalized() {\r\n        require(registrationFeeFinalized, \"Registration fee is not finalized yet.\");\r\n        _;\r\n    }\r\n\r\n    // Modifier to check if the sender is the government body\r\n    modifier onlyGovernmentBody() {\r\n        require(msg.sender == governmentBody, \"Only government body can perform this action.\");\r\n        _;\r\n    }\r\n\r\n    // Modifier to check if the sender is a registered organization\r\n    modifier onlyRegisteredOrganization() {\r\n        require(certifiedOrganizations[msg.sender], \"Only registered organizations can perform this action.\");\r\n        _;\r\n    }\r\n\r\n    // Modifier to check if the sender is a registered factory\r\n    modifier onlyRegisteredFactory() {\r\n        require(isRegisteredFactory(msg.sender), \"Only registered factories can perform this action.\");\r\n        _;\r\n    }\r\n\r\n    constructor() payable {\r\n        governmentBody = payable(msg.sender);\r\n    }\r\n\r\n    // Function to register a factory by the government body\r\n    function registerFactory(address factory) public onlyGovernmentBody {\r\n        registeredFactories.push(payable(factory));\r\n    }\r\n\r\n    // Function to record emissions data by registered factories\r\n    function recordEmissions(uint emissions) public onlyRegisteredFactory {\r\n        require(emissions > 0, \"Emissions data must be greater than zero MTCO2e.\");\r\n        require(availableCredits[msg.sender].amount >= emissions, \"Insufficient available credits.\");\r\n\r\n        availableCredits[msg.sender].amount -= emissions;\r\n\r\n        factoryEmissions[msg.sender].push(EmissionsData({\r\n            emissions: emissions,\r\n            dataSubmitted: true,\r\n            verifier: address(0),\r\n            verified: false,\r\n            timestamp: block.timestamp\r\n        }));\r\n    }\r\n\r\n    // Function to verify emissions data by the government body\r\n    function verifyEmissions(address factory, uint dataIndex) public onlyGovernmentBody {\r\n        EmissionsData storage data = factoryEmissions[factory][dataIndex];\r\n        require(data.dataSubmitted, \"No emissions data submitted at this index.\");\r\n        require(!data.verified, \"Emissions data already verified.\");\r\n\r\n        data.verifier = msg.sender;\r\n        data.verified = true;\r\n    }\r\n\r\n    // Function to get the total verified emissions for a factory\r\n    function getTotalEmissions(address factory) public view returns (uint totalEmissions) {\r\n        uint emissionsCount = factoryEmissions[factory].length;\r\n        for (uint i = 0; i < emissionsCount; i++) {\r\n            if (factoryEmissions[factory][i].verified) {\r\n                totalEmissions += factoryEmissions[factory][i].emissions;\r\n            }\r\n        }\r\n    }\r\n\r\n    // Function to get available credits for a factory\r\n    function getAvailableCredits(address factory) public view returns (uint creditsAvailable) {\r\n        creditsAvailable = availableCredits[factory].amount;\r\n    }\r\n\r\n    // Function to set the registration fee by the government body\r\n    function setRegistrationFee(uint fee) external onlyGovernmentBody {\r\n        require(fee > 0, \"Registration fee should be greater than zero.\");\r\n        registrationFee = fee;\r\n        registrationFeeFinalized = true; // Marking registration fee as finalized\r\n    }\r\n\r\n    // Function for registered organizations to pay the registration fee\r\n    function payRegistrationFee() external payable onlyRegisteredOrganization {\r\n        registrationFeesPaid[msg.sender] += msg.value; // Track the fee paid by the organization\r\n        payable(governmentBody).transfer(registrationFee);\r\n        emit RegistrationFeePaid(msg.sender, msg.value); // Log the registration fee payment\r\n    }\r\n\r\n    // Function for registered factories to buy credits from a certified organization\r\n    function buyCreditsFromOrganization(address payable organization, uint creditsAmount) external onlyRegisteredFactory {\r\n        require(certifiedOrganizations[organization], \"Organization is not certified.\");\r\n        require(creditsAmount > 0, \"Credits amount should be greater than zero.\");\r\n\r\n        uint creditsPrice = creditsAmount * 2; // Calculate the price for the requested credits\r\n        require(address(this).balance >= creditsPrice, \"Insufficient Ether balance in the contract.\");\r\n\r\n        organization.transfer(creditsPrice); // Transfer Ether (2 times the credits price) to the organization\r\n\r\n        availableCredits[msg.sender].amount += creditsAmount; // Update factory's available credits\r\n        availableCredits[msg.sender].organization = organization;\r\n\r\n        emit CreditsPurchased(msg.sender, organization, creditsAmount); // Log the purchase of credits\r\n    }\r\n\r\n    // Function for the government body to withdraw Ether from the contract\r\n    function withdrawEther(uint amount) external onlyGovernmentBody {\r\n        require(amount <= address(this).balance, \"Insufficient contract balance.\");\r\n        payable(governmentBody).transfer(amount);\r\n    }\r\n\r\n    // Function for the government body to certify an organization\r\n    function certifyOrganization(address organization) public onlyGovernmentBody registrationFeeIsFinalized {\r\n        certifiedOrganizations[organization] = true;\r\n        registeredOrganizations.push(payable(organization));\r\n    }\r\n\r\n    // Internal function to check if an address is a registered factory\r\n    function isRegisteredFactory(address _address) internal view returns (bool) {\r\n        for (uint i = 0; i < registeredFactories.length; i++) {\r\n            if (registeredFactories[i] == _address) {\r\n                return true;\r\n            }\r\n        }\r\n        return false;\r\n    }\r\n}\r\n",
  "sourcePath": "D:\\Blockchain-Project\\carbon-cap\\contracts\\CarbonCap.sol",
  "compiler": {
    "name": "solc",
    "version": "0.8.21+commit.d9974bed.Emscripten.clang"
  },
  "schemaVersion": "3.4.16",
  "updatedAt": "2023-11-26T10:01:59.188Z",
  "networkType": "ethereum",
  "devdoc": {
    "details": "Manages emissions monitoring and carbon credit transactions for factories.",
    "kind": "dev",
    "methods": {},
    "title": "CarbonCap",
    "version": 1
  },
  "userdoc": {
    "kind": "user",
    "methods": {},
    "version": 1
  }
}