{
  "contractName": "CarbonCap",
  "abi": [
    {
      "inputs": [],
      "stateMutability": "payable",
      "type": "constructor",
      "payable": true
    },
    {
      "anonymous": false,
      "inputs": [
        {
          "indexed": true,
          "internalType": "address",
          "name": "buyer",
          "type": "address"
        },
        {
          "indexed": true,
          "internalType": "address",
          "name": "organization",
          "type": "address"
        },
        {
          "indexed": false,
          "internalType": "uint256",
          "name": "amount",
          "type": "uint256"
        }
      ],
      "name": "CreditsPurchased",
      "type": "event"
    },
    {
      "anonymous": false,
      "inputs": [
        {
          "indexed": true,
          "internalType": "address",
          "name": "receiver",
          "type": "address"
        },
        {
          "indexed": true,
          "internalType": "address",
          "name": "payer",
          "type": "address"
        },
        {
          "indexed": false,
          "internalType": "uint256",
          "name": "amount",
          "type": "uint256"
        }
      ],
      "name": "RegistrationFeePaid",
      "type": "event"
    },
    {
      "inputs": [
        {
          "internalType": "address",
          "name": "",
          "type": "address"
        }
      ],
      "name": "availableCredits",
      "outputs": [
        {
          "internalType": "uint256",
          "name": "amount",
          "type": "uint256"
        },
        {
          "internalType": "address",
          "name": "organization",
          "type": "address"
        }
      ],
      "stateMutability": "view",
      "type": "function",
      "constant": true
    },
    {
      "inputs": [
        {
          "internalType": "address",
          "name": "",
          "type": "address"
        }
      ],
      "name": "certifiedOrganizations",
      "outputs": [
        {
          "internalType": "bool",
          "name": "",
          "type": "bool"
        }
      ],
      "stateMutability": "view",
      "type": "function",
      "constant": true
    },
    {
      "inputs": [
        {
          "internalType": "address",
          "name": "",
          "type": "address"
        },
        {
          "internalType": "uint256",
          "name": "",
          "type": "uint256"
        }
      ],
      "name": "factoryEmissions",
      "outputs": [
        {
          "internalType": "uint256",
          "name": "emissions",
          "type": "uint256"
        },
        {
          "internalType": "bool",
          "name": "dataSubmitted",
          "type": "bool"
        },
        {
          "internalType": "address",
          "name": "verifier",
          "type": "address"
        },
        {
          "internalType": "bool",
          "name": "verified",
          "type": "bool"
        },
        {
          "internalType": "uint256",
          "name": "timestamp",
          "type": "uint256"
        }
      ],
      "stateMutability": "view",
      "type": "function",
      "constant": true
    },
    {
      "inputs": [],
      "name": "governmentBody",
      "outputs": [
        {
          "internalType": "address payable",
          "name": "",
          "type": "address"
        }
      ],
      "stateMutability": "view",
      "type": "function",
      "constant": true
    },
    {
      "inputs": [
        {
          "internalType": "uint256",
          "name": "",
          "type": "uint256"
        }
      ],
      "name": "registeredFactories",
      "outputs": [
        {
          "internalType": "address payable",
          "name": "",
          "type": "address"
        }
      ],
      "stateMutability": "view",
      "type": "function",
      "constant": true
    },
    {
      "inputs": [
        {
          "internalType": "uint256",
          "name": "",
          "type": "uint256"
        }
      ],
      "name": "registeredOrganizations",
      "outputs": [
        {
          "internalType": "address payable",
          "name": "",
          "type": "address"
        }
      ],
      "stateMutability": "view",
      "type": "function",
      "constant": true
    },
    {
      "inputs": [],
      "name": "registrationFee",
      "outputs": [
        {
          "internalType": "uint256",
          "name": "",
          "type": "uint256"
        }
      ],
      "stateMutability": "view",
      "type": "function",
      "constant": true
    },
    {
      "inputs": [],
      "name": "registrationFeeFinalized",
      "outputs": [
        {
          "internalType": "bool",
          "name": "",
          "type": "bool"
        }
      ],
      "stateMutability": "view",
      "type": "function",
      "constant": true
    },
    {
      "inputs": [
        {
          "internalType": "address",
          "name": "",
          "type": "address"
        }
      ],
      "name": "registrationFeePaidByOrganization",
      "outputs": [
        {
          "internalType": "bool",
          "name": "",
          "type": "bool"
        }
      ],
      "stateMutability": "view",
      "type": "function",
      "constant": true
    },
    {
      "inputs": [
        {
          "internalType": "address",
          "name": "",
          "type": "address"
        }
      ],
      "name": "registrationFeesPaid",
      "outputs": [
        {
          "internalType": "uint256",
          "name": "",
          "type": "uint256"
        }
      ],
      "stateMutability": "view",
      "type": "function",
      "constant": true
    },
    {
      "inputs": [
        {
          "internalType": "address",
          "name": "factory",
          "type": "address"
        }
      ],
      "name": "registerFactory",
      "outputs": [],
      "stateMutability": "nonpayable",
      "type": "function"
    },
    {
      "inputs": [
        {
          "internalType": "uint256",
          "name": "emissions",
          "type": "uint256"
        }
      ],
      "name": "recordEmissions",
      "outputs": [],
      "stateMutability": "nonpayable",
      "type": "function"
    },
    {
      "inputs": [
        {
          "internalType": "address",
          "name": "factory",
          "type": "address"
        },
        {
          "internalType": "uint256",
          "name": "dataIndex",
          "type": "uint256"
        }
      ],
      "name": "verifyEmissions",
      "outputs": [],
      "stateMutability": "nonpayable",
      "type": "function"
    },
    {
      "inputs": [
        {
          "internalType": "address",
          "name": "factory",
          "type": "address"
        }
      ],
      "name": "getTotalEmissions",
      "outputs": [
        {
          "internalType": "uint256",
          "name": "totalEmissions",
          "type": "uint256"
        }
      ],
      "stateMutability": "view",
      "type": "function",
      "constant": true
    },
    {
      "inputs": [
        {
          "internalType": "address",
          "name": "factory",
          "type": "address"
        }
      ],
      "name": "getAvailableCredits",
      "outputs": [
        {
          "internalType": "uint256",
          "name": "creditsAvailable",
          "type": "uint256"
        }
      ],
      "stateMutability": "view",
      "type": "function",
      "constant": true
    },
    {
      "inputs": [
        {
          "internalType": "uint256",
          "name": "fee",
          "type": "uint256"
        }
      ],
      "name": "setRegistrationFee",
      "outputs": [],
      "stateMutability": "nonpayable",
      "type": "function"
    },
    {
      "inputs": [],
      "name": "payRegistrationFee",
      "outputs": [],
      "stateMutability": "payable",
      "type": "function",
      "payable": true
    },
    {
      "inputs": [
        {
          "internalType": "address payable",
          "name": "organization",
          "type": "address"
        },
        {
          "internalType": "uint256",
          "name": "creditsAmount",
          "type": "uint256"
        }
      ],
      "name": "buyCreditsFromOrganization",
      "outputs": [],
      "stateMutability": "nonpayable",
      "type": "function"
    },
    {
      "inputs": [
        {
          "internalType": "uint256",
          "name": "amount",
          "type": "uint256"
        }
      ],
      "name": "withdrawEther",
      "outputs": [],
      "stateMutability": "nonpayable",
      "type": "function"
    },
    {
      "inputs": [
        {
          "internalType": "address",
          "name": "organization",
          "type": "address"
        }
      ],
      "name": "certifyOrganization",
      "outputs": [],
      "stateMutability": "nonpayable",
      "type": "function"
    },
    {
      "inputs": [],
      "name": "getGovernmentBodyAddress",
      "outputs": [
        {
          "internalType": "address",
          "name": "",
          "type": "address"
        }
      ],
      "stateMutability": "view",
      "type": "function",
      "constant": true
    },
    {
      "inputs": [],
      "name": "getFactoryAddresses",
      "outputs": [
        {
          "internalType": "address[]",
          "name": "",
          "type": "address[]"
        }
      ],
      "stateMutability": "view",
      "type": "function",
      "constant": true
    },
    {
      "inputs": [
        {
          "internalType": "address",
          "name": "factory",
          "type": "address"
        }
      ],
      "name": "getFactoryEmissions",
      "outputs": [
        {
          "internalType": "uint256[]",
          "name": "",
          "type": "uint256[]"
        }
      ],
      "stateMutability": "view",
      "type": "function",
      "constant": true
    },
    {
      "inputs": [
        {
          "internalType": "address",
          "name": "factory",
          "type": "address"
        }
      ],
      "name": "getFactoryAvailableCredits",
      "outputs": [
        {
          "internalType": "uint256",
          "name": "",
          "type": "uint256"
        }
      ],
      "stateMutability": "view",
      "type": "function",
      "constant": true
    }
  ],
  "bytecode": "0x6080604052670de0b6b3a7640000600855336000806101000a81548173ffffffffffffffffffffffffffffffffffffffff021916908373ffffffffffffffffffffffffffffffffffffffff160217905550612c2c8061005f6000396000f3fe60806040526004361061014b5760003560e01c80637795ede4116100b6578063c320c7271161006f578063c320c727146104ae578063c9a89f11146104d7578063d10de84e14610514578063deb901141461053d578063e5e5ef881461057a578063e98c59cc146105b75761014b565b80637795ede41461038e578063783ff1f1146103b75780637f66d304146103e05780637f8a878f14610409578063afc3f9b614610434578063b065a8e5146104715761014b565b80631ed71313116101085780631ed713131461028b5780632432c0f1146102b65780633bed33ce146102c057806344de3595146102e95780635b1c3ce914610314578063740f7478146103515761014b565b806304671123146101505780630df2ec7c1461018e57806312116b0f146101cf57806313bfa35b146101fa57806313cd38401461022357806314c44e0914610260575b600080fd5b34801561015c57600080fd5b5061017760048036038101906101729190611e9a565b6105f4565b604051610185929190611eef565b60405180910390f35b34801561019a57600080fd5b506101b560048036038101906101b09190611f44565b610638565b6040516101c6959493929190611f9f565b60405180910390f35b3480156101db57600080fd5b506101e46106c5565b6040516101f19190611ff2565b60405180910390f35b34801561020657600080fd5b50610221600480360381019061021c919061200d565b6106ee565b005b34801561022f57600080fd5b5061024a60048036038101906102459190611e9a565b61091e565b60405161025791906120f8565b60405180910390f35b34801561026c57600080fd5b50610275610aed565b604051610282919061211a565b60405180910390f35b34801561029757600080fd5b506102a0610af3565b6040516102ad91906121f3565b60405180910390f35b6102be610c8d565b005b3480156102cc57600080fd5b506102e760048036038101906102e2919061200d565b610f42565b005b3480156102f557600080fd5b506102fe61107d565b60405161030b9190612215565b60405180910390f35b34801561032057600080fd5b5061033b60048036038101906103369190611e9a565b611090565b604051610348919061211a565b60405180910390f35b34801561035d57600080fd5b5061037860048036038101906103739190611e9a565b6110a8565b604051610385919061211a565b60405180910390f35b34801561039a57600080fd5b506103b560048036038101906103b09190611e9a565b611183565b005b3480156103c357600080fd5b506103de60048036038101906103d99190611e9a565b6113ad565b005b3480156103ec57600080fd5b506104076004803603810190610402919061226e565b6114ec565b005b34801561041557600080fd5b5061041e611819565b60405161042b91906122bd565b60405180910390f35b34801561044057600080fd5b5061045b60048036038101906104569190611e9a565b61183d565b6040516104689190612215565b60405180910390f35b34801561047d57600080fd5b5061049860048036038101906104939190611e9a565b61185d565b6040516104a5919061211a565b60405180910390f35b3480156104ba57600080fd5b506104d560048036038101906104d0919061200d565b6118a9565b005b3480156104e357600080fd5b506104fe60048036038101906104f9919061200d565b61199f565b60405161050b91906122bd565b60405180910390f35b34801561052057600080fd5b5061053b60048036038101906105369190611f44565b6119de565b005b34801561054957600080fd5b50610564600480360381019061055f919061200d565b611bd7565b60405161057191906122bd565b60405180910390f35b34801561058657600080fd5b506105a1600480360381019061059c9190611e9a565b611c16565b6040516105ae9190612215565b60405180910390f35b3480156105c357600080fd5b506105de60048036038101906105d99190611e9a565b611c36565b6040516105eb919061211a565b60405180910390f35b60046020528060005260406000206000915090508060000154908060010160009054906101000a900473ffffffffffffffffffffffffffffffffffffffff16905082565b6003602052816000526040600020818154811061065457600080fd5b9060005260206000209060030201600091509150508060000154908060010160009054906101000a900460ff16908060010160019054906101000a900473ffffffffffffffffffffffffffffffffffffffff16908060010160159054906101000a900460ff16908060020154905085565b60008060009054906101000a900473ffffffffffffffffffffffffffffffffffffffff16905090565b6106f733611d89565b610736576040517f08c379a000000000000000000000000000000000000000000000000000000000815260040161072d9061235b565b60405180910390fd5b60008111610779576040517f08c379a0000000000000000000000000000000000000000000000000000000008152600401610770906123ed565b60405180910390fd5b80600460003373ffffffffffffffffffffffffffffffffffffffff1673ffffffffffffffffffffffffffffffffffffffff16815260200190815260200160002060000160008282546107cb919061243c565b92505081905550600360003373ffffffffffffffffffffffffffffffffffffffff1673ffffffffffffffffffffffffffffffffffffffff1681526020019081526020016000206040518060a00160405280838152602001600115158152602001600073ffffffffffffffffffffffffffffffffffffffff1681526020016000151581526020014281525090806001815401808255809150506001900390600052602060002090600302016000909190919091506000820151816000015560208201518160010160006101000a81548160ff02191690831515021790555060408201518160010160016101000a81548173ffffffffffffffffffffffffffffffffffffffff021916908373ffffffffffffffffffffffffffffffffffffffff16021790555060608201518160010160156101000a81548160ff02191690831515021790555060808201518160020155505050565b606060008054906101000a900473ffffffffffffffffffffffffffffffffffffffff1673ffffffffffffffffffffffffffffffffffffffff163373ffffffffffffffffffffffffffffffffffffffff16146109ae576040517f08c379a00000000000000000000000000000000000000000000000000000000081526004016109a5906124e2565b60405180910390fd5b6000600360008473ffffffffffffffffffffffffffffffffffffffff1673ffffffffffffffffffffffffffffffffffffffff16815260200190815260200160002080549050905060008167ffffffffffffffff811115610a1157610a10612502565b5b604051908082528060200260200182016040528015610a3f5781602001602082028036833780820191505090505b50905060005b82811015610ae257600360008673ffffffffffffffffffffffffffffffffffffffff1673ffffffffffffffffffffffffffffffffffffffff1681526020019081526020016000208181548110610a9e57610a9d612531565b5b906000526020600020906003020160000154828281518110610ac357610ac2612531565b5b6020026020010181815250508080610ada90612560565b915050610a45565b508092505050919050565b60085481565b606060008054906101000a900473ffffffffffffffffffffffffffffffffffffffff1673ffffffffffffffffffffffffffffffffffffffff163373ffffffffffffffffffffffffffffffffffffffff1614610b83576040517f08c379a0000000000000000000000000000000000000000000000000000000008152600401610b7a906124e2565b60405180910390fd5b6000600180549050905060008167ffffffffffffffff811115610ba957610ba8612502565b5b604051908082528060200260200182016040528015610bd75781602001602082028036833780820191505090505b50905060005b82811015610c845760018181548110610bf957610bf8612531565b5b9060005260206000200160009054906101000a900473ffffffffffffffffffffffffffffffffffffffff16828281518110610c3757610c36612531565b5b602002602001019073ffffffffffffffffffffffffffffffffffffffff16908173ffffffffffffffffffffffffffffffffffffffff16815250508080610c7c90612560565b915050610bdd565b50809250505090565b600560003373ffffffffffffffffffffffffffffffffffffffff1673ffffffffffffffffffffffffffffffffffffffff16815260200190815260200160002060009054906101000a900460ff16610d19576040517f08c379a0000000000000000000000000000000000000000000000000000000008152600401610d109061261a565b60405180910390fd5b600760003373ffffffffffffffffffffffffffffffffffffffff1673ffffffffffffffffffffffffffffffffffffffff16815260200190815260200160002060009054906101000a900460ff1615610da6576040517f08c379a0000000000000000000000000000000000000000000000000000000008152600401610d9d90612686565b60405180910390fd5b3373ffffffffffffffffffffffffffffffffffffffff1660008054906101000a900473ffffffffffffffffffffffffffffffffffffffff1673ffffffffffffffffffffffffffffffffffffffff167f17faf79b2a18c9b544aefb9ea2154b0e1f420f5ced7df52a05d56887d5cc45a534604051610e23919061211a565b60405180910390a334600660003373ffffffffffffffffffffffffffffffffffffffff1673ffffffffffffffffffffffffffffffffffffffff1681526020019081526020016000206000828254610e7a91906126a6565b925050819055506001600760003373ffffffffffffffffffffffffffffffffffffffff1673ffffffffffffffffffffffffffffffffffffffff16815260200190815260200160002060006101000a81548160ff02191690831515021790555060008054906101000a900473ffffffffffffffffffffffffffffffffffffffff1673ffffffffffffffffffffffffffffffffffffffff166108fc349081150290604051600060405180830381858888f19350505050158015610f3f573d6000803e3d6000fd5b50565b60008054906101000a900473ffffffffffffffffffffffffffffffffffffffff1673ffffffffffffffffffffffffffffffffffffffff163373ffffffffffffffffffffffffffffffffffffffff1614610fd0576040517f08c379a0000000000000000000000000000000000000000000000000000000008152600401610fc7906124e2565b60405180910390fd5b47811115611013576040517f08c379a000000000000000000000000000000000000000000000000000000000815260040161100a90612726565b60405180910390fd5b60008054906101000a900473ffffffffffffffffffffffffffffffffffffffff1673ffffffffffffffffffffffffffffffffffffffff166108fc829081150290604051600060405180830381858888f19350505050158015611079573d6000803e3d6000fd5b5050565b600960009054906101000a900460ff1681565b60066020528060005260406000206000915090505481565b60008060009054906101000a900473ffffffffffffffffffffffffffffffffffffffff1673ffffffffffffffffffffffffffffffffffffffff163373ffffffffffffffffffffffffffffffffffffffff1614611139576040517f08c379a0000000000000000000000000000000000000000000000000000000008152600401611130906124e2565b60405180910390fd5b600460008373ffffffffffffffffffffffffffffffffffffffff1673ffffffffffffffffffffffffffffffffffffffff168152602001908152602001600020600001549050919050565b60008054906101000a900473ffffffffffffffffffffffffffffffffffffffff1673ffffffffffffffffffffffffffffffffffffffff163373ffffffffffffffffffffffffffffffffffffffff1614611211576040517f08c379a0000000000000000000000000000000000000000000000000000000008152600401611208906124e2565b60405180910390fd5b80600560008273ffffffffffffffffffffffffffffffffffffffff1673ffffffffffffffffffffffffffffffffffffffff16815260200190815260200160002060009054906101000a900460ff161561129f576040517f08c379a0000000000000000000000000000000000000000000000000000000008152600401611296906127b8565b60405180910390fd5b600960009054906101000a900460ff166112ee576040517f08c379a00000000000000000000000000000000000000000000000000000000081526004016112e59061284a565b60405180910390fd5b6001600560008473ffffffffffffffffffffffffffffffffffffffff1673ffffffffffffffffffffffffffffffffffffffff16815260200190815260200160002060006101000a81548160ff0219169083151502179055506002829080600181540180825580915050600190039060005260206000200160009091909190916101000a81548173ffffffffffffffffffffffffffffffffffffffff021916908373ffffffffffffffffffffffffffffffffffffffff1602179055505050565b60008054906101000a900473ffffffffffffffffffffffffffffffffffffffff1673ffffffffffffffffffffffffffffffffffffffff163373ffffffffffffffffffffffffffffffffffffffff161461143b576040517f08c379a0000000000000000000000000000000000000000000000000000000008152600401611432906124e2565b60405180910390fd5b8061144581611d89565b15611485576040517f08c379a000000000000000000000000000000000000000000000000000000000815260040161147c906128b6565b60405180910390fd5b6001829080600181540180825580915050600190039060005260206000200160009091909190916101000a81548173ffffffffffffffffffffffffffffffffffffffff021916908373ffffffffffffffffffffffffffffffffffffffff1602179055505050565b6114f533611d89565b611534576040517f08c379a000000000000000000000000000000000000000000000000000000000815260040161152b9061235b565b60405180910390fd5b600560008373ffffffffffffffffffffffffffffffffffffffff1673ffffffffffffffffffffffffffffffffffffffff16815260200190815260200160002060009054906101000a900460ff166115c0576040517f08c379a00000000000000000000000000000000000000000000000000000000081526004016115b790612922565b60405180910390fd5b60008111611603576040517f08c379a00000000000000000000000000000000000000000000000000000000081526004016115fa906129b4565b60405180910390fd5b600760008373ffffffffffffffffffffffffffffffffffffffff1673ffffffffffffffffffffffffffffffffffffffff16815260200190815260200160002060009054906101000a900460ff1661168f576040517f08c379a000000000000000000000000000000000000000000000000000000000815260040161168690612a46565b60405180910390fd5b8173ffffffffffffffffffffffffffffffffffffffff166108fc829081150290604051600060405180830381858888f193505050501580156116d5573d6000803e3d6000fd5b508173ffffffffffffffffffffffffffffffffffffffff163373ffffffffffffffffffffffffffffffffffffffff167f04297192211dd6ce4c4f2aac1d314a51360598d084022b5e7a4148b2dabc989883604051611733919061211a565b60405180910390a380600460003373ffffffffffffffffffffffffffffffffffffffff1673ffffffffffffffffffffffffffffffffffffffff168152602001908152602001600020600001600082825461178d91906126a6565b9250508190555081600460003373ffffffffffffffffffffffffffffffffffffffff1673ffffffffffffffffffffffffffffffffffffffff16815260200190815260200160002060010160006101000a81548173ffffffffffffffffffffffffffffffffffffffff021916908373ffffffffffffffffffffffffffffffffffffffff1602179055505050565b60008054906101000a900473ffffffffffffffffffffffffffffffffffffffff1681565b60076020528060005260406000206000915054906101000a900460ff1681565b6000600460008373ffffffffffffffffffffffffffffffffffffffff1673ffffffffffffffffffffffffffffffffffffffff168152602001908152602001600020600001549050919050565b60008054906101000a900473ffffffffffffffffffffffffffffffffffffffff1673ffffffffffffffffffffffffffffffffffffffff163373ffffffffffffffffffffffffffffffffffffffff1614611937576040517f08c379a000000000000000000000000000000000000000000000000000000000815260040161192e906124e2565b60405180910390fd5b6000811161197a576040517f08c379a000000000000000000000000000000000000000000000000000000000815260040161197190612ad8565b60405180910390fd5b806008819055506001600960006101000a81548160ff02191690831515021790555050565b600281815481106119af57600080fd5b906000526020600020016000915054906101000a900473ffffffffffffffffffffffffffffffffffffffff1681565b60008054906101000a900473ffffffffffffffffffffffffffffffffffffffff1673ffffffffffffffffffffffffffffffffffffffff163373ffffffffffffffffffffffffffffffffffffffff1614611a6c576040517f08c379a0000000000000000000000000000000000000000000000000000000008152600401611a63906124e2565b60405180910390fd5b6000600360008473ffffffffffffffffffffffffffffffffffffffff1673ffffffffffffffffffffffffffffffffffffffff1681526020019081526020016000208281548110611abf57611abe612531565b5b906000526020600020906003020190508060010160009054906101000a900460ff16611b20576040517f08c379a0000000000000000000000000000000000000000000000000000000008152600401611b1790612b6a565b60405180910390fd5b8060010160159054906101000a900460ff1615611b72576040517f08c379a0000000000000000000000000000000000000000000000000000000008152600401611b6990612bd6565b60405180910390fd5b338160010160016101000a81548173ffffffffffffffffffffffffffffffffffffffff021916908373ffffffffffffffffffffffffffffffffffffffff16021790555060018160010160156101000a81548160ff021916908315150217905550505050565b60018181548110611be757600080fd5b906000526020600020016000915054906101000a900473ffffffffffffffffffffffffffffffffffffffff1681565b60056020528060005260406000206000915054906101000a900460ff1681565b600080600360008473ffffffffffffffffffffffffffffffffffffffff1673ffffffffffffffffffffffffffffffffffffffff16815260200190815260200160002080549050905060005b81811015611d8257600360008573ffffffffffffffffffffffffffffffffffffffff1673ffffffffffffffffffffffffffffffffffffffff1681526020019081526020016000208181548110611cda57611cd9612531565b5b906000526020600020906003020160010160159054906101000a900460ff1615611d6f57600360008573ffffffffffffffffffffffffffffffffffffffff1673ffffffffffffffffffffffffffffffffffffffff1681526020019081526020016000208181548110611d4f57611d4e612531565b5b90600052602060002090600302016000015483611d6c91906126a6565b92505b8080611d7a90612560565b915050611c81565b5050919050565b600080600090505b600180549050811015611e2c578273ffffffffffffffffffffffffffffffffffffffff1660018281548110611dc957611dc8612531565b5b9060005260206000200160009054906101000a900473ffffffffffffffffffffffffffffffffffffffff1673ffffffffffffffffffffffffffffffffffffffff1603611e19576001915050611e32565b8080611e2490612560565b915050611d91565b50600090505b919050565b600080fd5b600073ffffffffffffffffffffffffffffffffffffffff82169050919050565b6000611e6782611e3c565b9050919050565b611e7781611e5c565b8114611e8257600080fd5b50565b600081359050611e9481611e6e565b92915050565b600060208284031215611eb057611eaf611e37565b5b6000611ebe84828501611e85565b91505092915050565b6000819050919050565b611eda81611ec7565b82525050565b611ee981611e5c565b82525050565b6000604082019050611f046000830185611ed1565b611f116020830184611ee0565b9392505050565b611f2181611ec7565b8114611f2c57600080fd5b50565b600081359050611f3e81611f18565b92915050565b60008060408385031215611f5b57611f5a611e37565b5b6000611f6985828601611e85565b9250506020611f7a85828601611f2f565b9150509250929050565b60008115159050919050565b611f9981611f84565b82525050565b600060a082019050611fb46000830188611ed1565b611fc16020830187611f90565b611fce6040830186611ee0565b611fdb6060830185611f90565b611fe86080830184611ed1565b9695505050505050565b60006020820190506120076000830184611ee0565b92915050565b60006020828403121561202357612022611e37565b5b600061203184828501611f2f565b91505092915050565b600081519050919050565b600082825260208201905092915050565b6000819050602082019050919050565b61206f81611ec7565b82525050565b60006120818383612066565b60208301905092915050565b6000602082019050919050565b60006120a58261203a565b6120af8185612045565b93506120ba83612056565b8060005b838110156120eb5781516120d28882612075565b97506120dd8361208d565b9250506001810190506120be565b5085935050505092915050565b60006020820190508181036000830152612112818461209a565b905092915050565b600060208201905061212f6000830184611ed1565b92915050565b600081519050919050565b600082825260208201905092915050565b6000819050602082019050919050565b61216a81611e5c565b82525050565b600061217c8383612161565b60208301905092915050565b6000602082019050919050565b60006121a082612135565b6121aa8185612140565b93506121b583612151565b8060005b838110156121e65781516121cd8882612170565b97506121d883612188565b9250506001810190506121b9565b5085935050505092915050565b6000602082019050818103600083015261220d8184612195565b905092915050565b600060208201905061222a6000830184611f90565b92915050565b600061223b82611e3c565b9050919050565b61224b81612230565b811461225657600080fd5b50565b60008135905061226881612242565b92915050565b6000806040838503121561228557612284611e37565b5b600061229385828601612259565b92505060206122a485828601611f2f565b9150509250929050565b6122b781612230565b82525050565b60006020820190506122d260008301846122ae565b92915050565b600082825260208201905092915050565b7f4f6e6c79207265676973746572656420666163746f726965732063616e20706560008201527f72666f726d207468697320616374696f6e2e0000000000000000000000000000602082015250565b60006123456032836122d8565b9150612350826122e9565b604082019050919050565b6000602082019050818103600083015261237481612338565b9050919050565b7f456d697373696f6e732064617461206d7573742062652067726561746572207460008201527f68616e207a65726f204d54434f32652e00000000000000000000000000000000602082015250565b60006123d76030836122d8565b91506123e28261237b565b604082019050919050565b60006020820190508181036000830152612406816123ca565b9050919050565b7f4e487b7100000000000000000000000000000000000000000000000000000000600052601160045260246000fd5b600061244782611ec7565b915061245283611ec7565b925082820390508181111561246a5761246961240d565b5b92915050565b7f4f6e6c7920676f7665726e6d656e7420626f64792063616e20706572666f726d60008201527f207468697320616374696f6e2e00000000000000000000000000000000000000602082015250565b60006124cc602d836122d8565b91506124d782612470565b604082019050919050565b600060208201905081810360008301526124fb816124bf565b9050919050565b7f4e487b7100000000000000000000000000000000000000000000000000000000600052604160045260246000fd5b7f4e487b7100000000000000000000000000000000000000000000000000000000600052603260045260246000fd5b600061256b82611ec7565b91507fffffffffffffffffffffffffffffffffffffffffffffffffffffffffffffffff820361259d5761259c61240d565b5b600182019050919050565b7f4f6e6c792072656769737465726564206f7267616e697a6174696f6e7320636160008201527f6e20706572666f726d207468697320616374696f6e2e00000000000000000000602082015250565b60006126046036836122d8565b915061260f826125a8565b604082019050919050565b60006020820190508181036000830152612633816125f7565b9050919050565b7f526567697374726174696f6e2066656520616c726561647920706169642e0000600082015250565b6000612670601e836122d8565b915061267b8261263a565b602082019050919050565b6000602082019050818103600083015261269f81612663565b9050919050565b60006126b182611ec7565b91506126bc83611ec7565b92508282019050808211156126d4576126d361240d565b5b92915050565b7f496e73756666696369656e7420636f6e74726163742062616c616e63652e0000600082015250565b6000612710601e836122d8565b915061271b826126da565b602082019050919050565b6000602082019050818103600083015261273f81612703565b9050919050565b7f4f7267616e697a6174696f6e20697320616c726561647920636572746966696560008201527f642e000000000000000000000000000000000000000000000000000000000000602082015250565b60006127a26022836122d8565b91506127ad82612746565b604082019050919050565b600060208201905081810360008301526127d181612795565b9050919050565b7f526567697374726174696f6e20666565206973206e6f742066696e616c697a6560008201527f64207965742e0000000000000000000000000000000000000000000000000000602082015250565b60006128346026836122d8565b915061283f826127d8565b604082019050919050565b6000602082019050818103600083015261286381612827565b9050919050565b7f466163746f727920697320616c726561647920726567697374657265642e0000600082015250565b60006128a0601e836122d8565b91506128ab8261286a565b602082019050919050565b600060208201905081810360008301526128cf81612893565b9050919050565b7f4f7267616e697a6174696f6e206973206e6f74206365727469666965642e0000600082015250565b600061290c601e836122d8565b9150612917826128d6565b602082019050919050565b6000602082019050818103600083015261293b816128ff565b9050919050565b7f4372656469747320616d6f756e742073686f756c64206265206772656174657260008201527f207468616e207a65726f2e000000000000000000000000000000000000000000602082015250565b600061299e602b836122d8565b91506129a982612942565b604082019050919050565b600060208201905081810360008301526129cd81612991565b9050919050565b7f4f7267616e697a6174696f6e206d75737420706179207265676973747261746960008201527f6f6e206665652e00000000000000000000000000000000000000000000000000602082015250565b6000612a306027836122d8565b9150612a3b826129d4565b604082019050919050565b60006020820190508181036000830152612a5f81612a23565b9050919050565b7f526567697374726174696f6e206665652073686f756c6420626520677265617460008201527f6572207468616e207a65726f2e00000000000000000000000000000000000000602082015250565b6000612ac2602d836122d8565b9150612acd82612a66565b604082019050919050565b60006020820190508181036000830152612af181612ab5565b9050919050565b7f4e6f20656d697373696f6e732064617461207375626d6974746564206174207460008201527f68697320696e6465782e00000000000000000000000000000000000000000000602082015250565b6000612b54602a836122d8565b9150612b5f82612af8565b604082019050919050565b60006020820190508181036000830152612b8381612b47565b9050919050565b7f456d697373696f6e73206461746120616c72656164792076657269666965642e600082015250565b6000612bc06020836122d8565b9150612bcb82612b8a565b602082019050919050565b60006020820190508181036000830152612bef81612bb3565b905091905056fea26469706673582212205fc6c872a751c606847b2e948dab121c14c1b4964c5b3538db3310098ed2b86464736f6c63430008150033",
  "immutableReferences": {},
  "source": "// SPDX-License-Identifier: GPL-3.0\r\npragma solidity ^0.8.0;\r\n\r\n/**\r\n * @title CarbonCap\r\n * @dev Manages emissions monitoring and carbon credit transactions for factories.\r\n */\r\ncontract CarbonCap {\r\n    // Structure to store emissions data for a factory\r\n    struct EmissionsData {\r\n        uint emissions; // Emissions in metric tons of carbon dioxide equivalent (MTCO2e)\r\n        bool dataSubmitted; // Indicates if emissions data is submitted\r\n        address verifier; // Address of the entity verifying the emissions data\r\n        bool verified; // Indicates if emissions data is verified\r\n        uint timestamp; // Timestamp when emissions data is recorded\r\n    }\r\n\r\n    // Structure to represent carbon credits\r\n    struct CarbonCredit {\r\n        uint amount; // Amount of carbon credits in MTCO2e\r\n        address organization; // Organization providing carbon credits\r\n    }\r\n\r\n    address payable public governmentBody;\r\n    address payable[] public registeredFactories;\r\n    address payable[] public registeredOrganizations;\r\n\r\n    mapping(address => EmissionsData[]) public factoryEmissions;\r\n    mapping(address => CarbonCredit) public availableCredits;\r\n    mapping(address => bool) public certifiedOrganizations;\r\n    mapping(address => uint) public registrationFeesPaid;\r\n    mapping(address => bool) public registrationFeePaidByOrganization; // Track if organization paid registration fee\r\n\r\n\r\n    uint public registrationFee = 1 ether;\r\n    bool public registrationFeeFinalized;\r\n\r\n    event RegistrationFeePaid(address indexed receiver,address indexed payer, uint amount);\r\n    event CreditsPurchased(address indexed buyer, address indexed organization, uint amount);\r\n\r\n    // Modifier to check if the registration fee is finalized\r\n    modifier registrationFeeIsFinalized() {\r\n        require(registrationFeeFinalized, \"Registration fee is not finalized yet.\");\r\n        _;\r\n    }\r\n\r\n    // Modifier to check if the sender is the government body\r\n    modifier onlyGovernmentBody() {\r\n        require(msg.sender == governmentBody, \"Only government body can perform this action.\");\r\n        _;\r\n    }\r\n\r\n    // Modifier to check if the sender is a registered organization\r\n    modifier onlyRegisteredOrganization() {\r\n        require(certifiedOrganizations[msg.sender], \"Only registered organizations can perform this action.\");\r\n        _;\r\n    }\r\n\r\n    // Modifier to check if the sender is a registered factory\r\n    modifier onlyRegisteredFactory() {\r\n        require(isRegisteredFactory(msg.sender), \"Only registered factories can perform this action.\");\r\n        _;\r\n    }\r\n\r\n    modifier onlyUnregisteredFactory(address factory) {\r\n    require(!isRegisteredFactory(factory), \"Factory is already registered.\");\r\n    _;\r\n}\r\nmodifier onlyUnregisteredOrganization(address organization) {\r\n    require(!certifiedOrganizations[organization], \"Organization is already certified.\");\r\n    _;\r\n}\r\n\r\n    constructor() payable {\r\n        governmentBody = payable(msg.sender);\r\n    }\r\n\r\n    // Function to register a factory by the government body\r\nfunction registerFactory(address factory) public onlyGovernmentBody onlyUnregisteredFactory(factory) {\r\n    registeredFactories.push(payable(factory));\r\n}\r\n\r\n\r\n    // Function to record emissions data by registered factories\r\n    function recordEmissions(uint emissions) public onlyRegisteredFactory {\r\n        require(emissions > 0, \"Emissions data must be greater than zero MTCO2e.\");\r\n        // require(availableCredits[msg.sender].amount >= emissions, \"Insufficient available credits.\");\r\n\r\n        availableCredits[msg.sender].amount -= emissions;\r\n\r\n        factoryEmissions[msg.sender].push(EmissionsData({\r\n            emissions: emissions,\r\n            dataSubmitted: true,\r\n            verifier: address(0),\r\n            verified: false,\r\n            timestamp: block.timestamp\r\n        }));\r\n    }\r\n\r\n    // Function to verify emissions data by the government body\r\n    function verifyEmissions(address factory, uint dataIndex) public onlyGovernmentBody {\r\n        EmissionsData storage data = factoryEmissions[factory][dataIndex];\r\n        require(data.dataSubmitted, \"No emissions data submitted at this index.\");\r\n        require(!data.verified, \"Emissions data already verified.\");\r\n\r\n        data.verifier = msg.sender;\r\n        data.verified = true;\r\n    }\r\n\r\n    // Function to get the total verified emissions for a factory\r\n    function getTotalEmissions(address factory) public view returns (uint totalEmissions) {\r\n        uint emissionsCount = factoryEmissions[factory].length;\r\n        for (uint i = 0; i < emissionsCount; i++) {\r\n            if (factoryEmissions[factory][i].verified) {\r\n                totalEmissions += factoryEmissions[factory][i].emissions;\r\n            }\r\n        }\r\n    }\r\n\r\n    // Function to get available credits for a factory\r\n    function getAvailableCredits(address factory) public view returns (uint creditsAvailable) {\r\n        creditsAvailable = availableCredits[factory].amount;\r\n    }\r\n\r\n    // Function to set the registration fee by the government body\r\n    function setRegistrationFee(uint fee) external onlyGovernmentBody {\r\n        require(fee > 0, \"Registration fee should be greater than zero.\");\r\n        registrationFee = fee;\r\n        registrationFeeFinalized = true; // Marking registration fee as finalized\r\n    }\r\n\r\n    // Function for registered organizations to pay the registration fee\r\n        function payRegistrationFee() external payable onlyRegisteredOrganization {\r\n            require(!registrationFeePaidByOrganization[msg.sender], \"Registration fee already paid.\");\r\n            // require(msg.value>=registrationFee, \"Pay minimum Registration fees \");\r\n            emit RegistrationFeePaid(governmentBody,msg.sender, msg.value); // Log the registration fee payment\r\n            registrationFeesPaid[msg.sender] += msg.value; // Track the fee paid by the organization\r\n            registrationFeePaidByOrganization[msg.sender] = true; // Mark fee as paid by the organization\r\n            payable(governmentBody).transfer(msg.value); // transfer fees to goverment\r\n        }\r\n\r\n    \r\n\r\n    // Function for registered factories to buy credits from a certified organization\r\n// Function for registered factories to buy credits from a certified organization\r\nfunction buyCreditsFromOrganization(address payable organization, uint creditsAmount) external onlyRegisteredFactory {\r\n    require(certifiedOrganizations[organization], \"Organization is not certified.\");\r\n    require(creditsAmount > 0, \"Credits amount should be greater than zero.\");\r\n    require(registrationFeePaidByOrganization[organization], \"Organization must pay registration fee.\");\r\n\r\n    organization.transfer(creditsAmount); // \r\n\r\n    emit CreditsPurchased(msg.sender, organization, creditsAmount); // Log the purchase of credits\r\n\r\n    availableCredits[msg.sender].amount += creditsAmount; // Update factory's available credits\r\n    availableCredits[msg.sender].organization = organization;\r\n}\r\n\r\n    // Function for the government body to withdraw Ether from the contract\r\n    function withdrawEther(uint amount) external onlyGovernmentBody {\r\n        require(amount <= address(this).balance, \"Insufficient contract balance.\");\r\n        payable(governmentBody).transfer(amount);\r\n    }\r\n\r\n    // Function for the government body to certify an organization\r\nfunction certifyOrganization(address organization) public onlyGovernmentBody onlyUnregisteredOrganization(organization) registrationFeeIsFinalized {\r\n    certifiedOrganizations[organization] = true;\r\n    registeredOrganizations.push(payable(organization));\r\n}\r\n\r\n    // Internal function to check if an address is a registered factory\r\n    function isRegisteredFactory(address _address) internal view returns (bool) {\r\n        for (uint i = 0; i < registeredFactories.length; i++) {\r\n            if (registeredFactories[i] == _address) {\r\n                return true;\r\n            }\r\n        }\r\n        return false;\r\n    }\r\n        // Function to fetch the government body address\r\n    function getGovernmentBodyAddress() public view returns (address) {\r\n        return governmentBody;\r\n    }\r\n\r\n    function getFactoryAddresses() public view onlyGovernmentBody returns (address[] memory) {\r\n        uint totalFactories = registeredFactories.length;\r\n        address[] memory factoryAddresses = new address[](totalFactories);\r\n\r\n        for (uint i = 0; i < totalFactories; i++) {\r\n            factoryAddresses[i] = registeredFactories[i];\r\n        }\r\n\r\n        return factoryAddresses;\r\n    }\r\n\r\n    function getFactoryEmissions(address factory) public view onlyGovernmentBody returns (uint[] memory) {\r\n        uint emissionsCount = factoryEmissions[factory].length;\r\n        uint[] memory emissions = new uint[](emissionsCount);\r\n\r\n        for (uint i = 0; i < emissionsCount; i++) {\r\n            emissions[i] = factoryEmissions[factory][i].emissions;\r\n        }\r\n\r\n        return emissions;\r\n    }\r\n\r\n    function getFactoryAvailableCredits(address factory) public view onlyGovernmentBody returns (uint) {\r\n        return availableCredits[factory].amount;\r\n    }\r\n}\r\n",
  "sourcePath": "D:\\Blockchain-Project\\carbon-cap\\contracts\\CarbonCap.sol",
  "compiler": {
    "name": "solc",
    "version": "0.8.21+commit.d9974bed.Emscripten.clang"
  },
  "schemaVersion": "3.4.16",
  "updatedAt": "2023-11-28T16:35:27.434Z",
  "networkType": "ethereum",
  "devdoc": {
    "details": "Manages emissions monitoring and carbon credit transactions for factories.",
    "kind": "dev",
    "methods": {},
    "title": "CarbonCap",
    "version": 1
  },
  "userdoc": {
    "kind": "user",
    "methods": {},
    "version": 1
  }
}