{
  "contractName": "CarbonCap",
  "abi": [
    {
      "inputs": [],
      "stateMutability": "payable",
      "type": "constructor",
      "payable": true
    },
    {
      "anonymous": false,
      "inputs": [
        {
          "indexed": true,
          "internalType": "address",
          "name": "buyer",
          "type": "address"
        },
        {
          "indexed": true,
          "internalType": "address",
          "name": "organization",
          "type": "address"
        },
        {
          "indexed": false,
          "internalType": "uint256",
          "name": "amount",
          "type": "uint256"
        }
      ],
      "name": "CreditsPurchased",
      "type": "event"
    },
    {
      "anonymous": false,
      "inputs": [
        {
          "indexed": true,
          "internalType": "address",
          "name": "payer",
          "type": "address"
        },
        {
          "indexed": false,
          "internalType": "uint256",
          "name": "amount",
          "type": "uint256"
        }
      ],
      "name": "RegistrationFeePaid",
      "type": "event"
    },
    {
      "inputs": [
        {
          "internalType": "address",
          "name": "",
          "type": "address"
        }
      ],
      "name": "availableCredits",
      "outputs": [
        {
          "internalType": "uint256",
          "name": "amount",
          "type": "uint256"
        },
        {
          "internalType": "address",
          "name": "organization",
          "type": "address"
        }
      ],
      "stateMutability": "view",
      "type": "function",
      "constant": true
    },
    {
      "inputs": [
        {
          "internalType": "address",
          "name": "",
          "type": "address"
        }
      ],
      "name": "certifiedOrganizations",
      "outputs": [
        {
          "internalType": "bool",
          "name": "",
          "type": "bool"
        }
      ],
      "stateMutability": "view",
      "type": "function",
      "constant": true
    },
    {
      "inputs": [
        {
          "internalType": "address",
          "name": "",
          "type": "address"
        },
        {
          "internalType": "uint256",
          "name": "",
          "type": "uint256"
        }
      ],
      "name": "factoryEmissions",
      "outputs": [
        {
          "internalType": "uint256",
          "name": "emissions",
          "type": "uint256"
        },
        {
          "internalType": "bool",
          "name": "dataSubmitted",
          "type": "bool"
        },
        {
          "internalType": "address",
          "name": "verifier",
          "type": "address"
        },
        {
          "internalType": "bool",
          "name": "verified",
          "type": "bool"
        },
        {
          "internalType": "uint256",
          "name": "timestamp",
          "type": "uint256"
        }
      ],
      "stateMutability": "view",
      "type": "function",
      "constant": true
    },
    {
      "inputs": [],
      "name": "governmentBody",
      "outputs": [
        {
          "internalType": "address payable",
          "name": "",
          "type": "address"
        }
      ],
      "stateMutability": "view",
      "type": "function",
      "constant": true
    },
    {
      "inputs": [
        {
          "internalType": "uint256",
          "name": "",
          "type": "uint256"
        }
      ],
      "name": "registeredFactories",
      "outputs": [
        {
          "internalType": "address payable",
          "name": "",
          "type": "address"
        }
      ],
      "stateMutability": "view",
      "type": "function",
      "constant": true
    },
    {
      "inputs": [
        {
          "internalType": "uint256",
          "name": "",
          "type": "uint256"
        }
      ],
      "name": "registeredOrganizations",
      "outputs": [
        {
          "internalType": "address payable",
          "name": "",
          "type": "address"
        }
      ],
      "stateMutability": "view",
      "type": "function",
      "constant": true
    },
    {
      "inputs": [],
      "name": "registrationFee",
      "outputs": [
        {
          "internalType": "uint256",
          "name": "",
          "type": "uint256"
        }
      ],
      "stateMutability": "view",
      "type": "function",
      "constant": true
    },
    {
      "inputs": [],
      "name": "registrationFeeFinalized",
      "outputs": [
        {
          "internalType": "bool",
          "name": "",
          "type": "bool"
        }
      ],
      "stateMutability": "view",
      "type": "function",
      "constant": true
    },
    {
      "inputs": [
        {
          "internalType": "address",
          "name": "",
          "type": "address"
        }
      ],
      "name": "registrationFeesPaid",
      "outputs": [
        {
          "internalType": "uint256",
          "name": "",
          "type": "uint256"
        }
      ],
      "stateMutability": "view",
      "type": "function",
      "constant": true
    },
    {
      "inputs": [
        {
          "internalType": "address",
          "name": "factory",
          "type": "address"
        }
      ],
      "name": "registerFactory",
      "outputs": [],
      "stateMutability": "nonpayable",
      "type": "function"
    },
    {
      "inputs": [
        {
          "internalType": "uint256",
          "name": "emissions",
          "type": "uint256"
        }
      ],
      "name": "recordEmissions",
      "outputs": [],
      "stateMutability": "nonpayable",
      "type": "function"
    },
    {
      "inputs": [
        {
          "internalType": "address",
          "name": "factory",
          "type": "address"
        },
        {
          "internalType": "uint256",
          "name": "dataIndex",
          "type": "uint256"
        }
      ],
      "name": "verifyEmissions",
      "outputs": [],
      "stateMutability": "nonpayable",
      "type": "function"
    },
    {
      "inputs": [
        {
          "internalType": "address",
          "name": "factory",
          "type": "address"
        }
      ],
      "name": "getTotalEmissions",
      "outputs": [
        {
          "internalType": "uint256",
          "name": "totalEmissions",
          "type": "uint256"
        }
      ],
      "stateMutability": "view",
      "type": "function",
      "constant": true
    },
    {
      "inputs": [
        {
          "internalType": "address",
          "name": "factory",
          "type": "address"
        }
      ],
      "name": "getAvailableCredits",
      "outputs": [
        {
          "internalType": "uint256",
          "name": "creditsAvailable",
          "type": "uint256"
        }
      ],
      "stateMutability": "view",
      "type": "function",
      "constant": true
    },
    {
      "inputs": [
        {
          "internalType": "uint256",
          "name": "fee",
          "type": "uint256"
        }
      ],
      "name": "setRegistrationFee",
      "outputs": [],
      "stateMutability": "nonpayable",
      "type": "function"
    },
    {
      "inputs": [],
      "name": "payRegistrationFee",
      "outputs": [],
      "stateMutability": "payable",
      "type": "function",
      "payable": true
    },
    {
      "inputs": [
        {
          "internalType": "address payable",
          "name": "organization",
          "type": "address"
        },
        {
          "internalType": "uint256",
          "name": "creditsAmount",
          "type": "uint256"
        }
      ],
      "name": "buyCreditsFromOrganization",
      "outputs": [],
      "stateMutability": "nonpayable",
      "type": "function"
    },
    {
      "inputs": [
        {
          "internalType": "uint256",
          "name": "amount",
          "type": "uint256"
        }
      ],
      "name": "withdrawEther",
      "outputs": [],
      "stateMutability": "nonpayable",
      "type": "function"
    },
    {
      "inputs": [
        {
          "internalType": "address",
          "name": "organization",
          "type": "address"
        }
      ],
      "name": "certifyOrganization",
      "outputs": [],
      "stateMutability": "nonpayable",
      "type": "function"
    },
    {
      "inputs": [],
      "name": "getGovernmentBodyAddress",
      "outputs": [
        {
          "internalType": "address",
          "name": "",
          "type": "address"
        }
      ],
      "stateMutability": "view",
      "type": "function",
      "constant": true
    }
  ],
  "bytecode": "0x6080604052336000806101000a81548173ffffffffffffffffffffffffffffffffffffffff021916908373ffffffffffffffffffffffffffffffffffffffff160217905550612269806100536000396000f3fe60806040526004361061011f5760003560e01c8063783ff1f1116100a0578063c9a89f1111610064578063c9a89f11146103c9578063d10de84e14610406578063deb901141461042f578063e5e5ef881461046c578063e98c59cc146104a95761011f565b8063783ff1f1146102e65780637f66d3041461030f5780637f8a878f14610338578063b065a8e514610363578063c320c727146103a05761011f565b80632432c0f1116100e75780632432c0f1146102225780633bed33ce1461022c57806344de3595146102555780635b1c3ce9146102805780637795ede4146102bd5761011f565b806304671123146101245780630df2ec7c1461016257806312116b0f146101a357806313bfa35b146101ce57806314c44e09146101f7575b600080fd5b34801561013057600080fd5b5061014b60048036038101906101469190611782565b6104e6565b6040516101599291906117d7565b60405180910390f35b34801561016e57600080fd5b506101896004803603810190610184919061182c565b61052a565b60405161019a959493929190611887565b60405180910390f35b3480156101af57600080fd5b506101b86105b7565b6040516101c591906118da565b60405180910390f35b3480156101da57600080fd5b506101f560048036038101906101f091906118f5565b6105e0565b005b34801561020357600080fd5b5061020c610895565b6040516102199190611922565b60405180910390f35b61022a61089b565b005b34801561023857600080fd5b50610253600480360381019061024e91906118f5565b610a36565b005b34801561026157600080fd5b5061026a610b71565b604051610277919061193d565b60405180910390f35b34801561028c57600080fd5b506102a760048036038101906102a29190611782565b610b84565b6040516102b49190611922565b60405180910390f35b3480156102c957600080fd5b506102e460048036038101906102df9190611782565b610b9c565b005b3480156102f257600080fd5b5061030d60048036038101906103089190611782565b610d37565b005b34801561031b57600080fd5b5061033660048036038101906103319190611996565b610e2b565b005b34801561034457600080fd5b5061034d611121565b60405161035a91906119e5565b60405180910390f35b34801561036f57600080fd5b5061038a60048036038101906103859190611782565b611145565b6040516103979190611922565b60405180910390f35b3480156103ac57600080fd5b506103c760048036038101906103c291906118f5565b611191565b005b3480156103d557600080fd5b506103f060048036038101906103eb91906118f5565b611287565b6040516103fd91906119e5565b60405180910390f35b34801561041257600080fd5b5061042d6004803603810190610428919061182c565b6112c6565b005b34801561043b57600080fd5b50610456600480360381019061045191906118f5565b6114bf565b60405161046391906119e5565b60405180910390f35b34801561047857600080fd5b50610493600480360381019061048e9190611782565b6114fe565b6040516104a0919061193d565b60405180910390f35b3480156104b557600080fd5b506104d060048036038101906104cb9190611782565b61151e565b6040516104dd9190611922565b60405180910390f35b60046020528060005260406000206000915090508060000154908060010160009054906101000a900473ffffffffffffffffffffffffffffffffffffffff16905082565b6003602052816000526040600020818154811061054657600080fd5b9060005260206000209060030201600091509150508060000154908060010160009054906101000a900460ff16908060010160019054906101000a900473ffffffffffffffffffffffffffffffffffffffff16908060010160159054906101000a900460ff16908060020154905085565b60008060009054906101000a900473ffffffffffffffffffffffffffffffffffffffff16905090565b6105e933611671565b610628576040517f08c379a000000000000000000000000000000000000000000000000000000000815260040161061f90611a83565b60405180910390fd5b6000811161066b576040517f08c379a000000000000000000000000000000000000000000000000000000000815260040161066290611b15565b60405180910390fd5b80600460003373ffffffffffffffffffffffffffffffffffffffff1673ffffffffffffffffffffffffffffffffffffffff1681526020019081526020016000206000015410156106f0576040517f08c379a00000000000000000000000000000000000000000000000000000000081526004016106e790611b81565b60405180910390fd5b80600460003373ffffffffffffffffffffffffffffffffffffffff1673ffffffffffffffffffffffffffffffffffffffff16815260200190815260200160002060000160008282546107429190611bd0565b92505081905550600360003373ffffffffffffffffffffffffffffffffffffffff1673ffffffffffffffffffffffffffffffffffffffff1681526020019081526020016000206040518060a00160405280838152602001600115158152602001600073ffffffffffffffffffffffffffffffffffffffff1681526020016000151581526020014281525090806001815401808255809150506001900390600052602060002090600302016000909190919091506000820151816000015560208201518160010160006101000a81548160ff02191690831515021790555060408201518160010160016101000a81548173ffffffffffffffffffffffffffffffffffffffff021916908373ffffffffffffffffffffffffffffffffffffffff16021790555060608201518160010160156101000a81548160ff02191690831515021790555060808201518160020155505050565b60075481565b600560003373ffffffffffffffffffffffffffffffffffffffff1673ffffffffffffffffffffffffffffffffffffffff16815260200190815260200160002060009054906101000a900460ff16610927576040517f08c379a000000000000000000000000000000000000000000000000000000000815260040161091e90611c76565b60405180910390fd5b34600660003373ffffffffffffffffffffffffffffffffffffffff1673ffffffffffffffffffffffffffffffffffffffff16815260200190815260200160002060008282546109769190611c96565b9250508190555060008054906101000a900473ffffffffffffffffffffffffffffffffffffffff1673ffffffffffffffffffffffffffffffffffffffff166108fc6007549081150290604051600060405180830381858888f193505050501580156109e5573d6000803e3d6000fd5b503373ffffffffffffffffffffffffffffffffffffffff167f7111f0e8e9dcc93b06ab6bf56fd094a95f76a198a82b93ed856b451053f235b134604051610a2c9190611922565b60405180910390a2565b60008054906101000a900473ffffffffffffffffffffffffffffffffffffffff1673ffffffffffffffffffffffffffffffffffffffff163373ffffffffffffffffffffffffffffffffffffffff1614610ac4576040517f08c379a0000000000000000000000000000000000000000000000000000000008152600401610abb90611d3c565b60405180910390fd5b47811115610b07576040517f08c379a0000000000000000000000000000000000000000000000000000000008152600401610afe90611da8565b60405180910390fd5b60008054906101000a900473ffffffffffffffffffffffffffffffffffffffff1673ffffffffffffffffffffffffffffffffffffffff166108fc829081150290604051600060405180830381858888f19350505050158015610b6d573d6000803e3d6000fd5b5050565b600860009054906101000a900460ff1681565b60066020528060005260406000206000915090505481565b60008054906101000a900473ffffffffffffffffffffffffffffffffffffffff1673ffffffffffffffffffffffffffffffffffffffff163373ffffffffffffffffffffffffffffffffffffffff1614610c2a576040517f08c379a0000000000000000000000000000000000000000000000000000000008152600401610c2190611d3c565b60405180910390fd5b600860009054906101000a900460ff16610c79576040517f08c379a0000000000000000000000000000000000000000000000000000000008152600401610c7090611e3a565b60405180910390fd5b6001600560008373ffffffffffffffffffffffffffffffffffffffff1673ffffffffffffffffffffffffffffffffffffffff16815260200190815260200160002060006101000a81548160ff0219169083151502179055506002819080600181540180825580915050600190039060005260206000200160009091909190916101000a81548173ffffffffffffffffffffffffffffffffffffffff021916908373ffffffffffffffffffffffffffffffffffffffff16021790555050565b60008054906101000a900473ffffffffffffffffffffffffffffffffffffffff1673ffffffffffffffffffffffffffffffffffffffff163373ffffffffffffffffffffffffffffffffffffffff1614610dc5576040517f08c379a0000000000000000000000000000000000000000000000000000000008152600401610dbc90611d3c565b60405180910390fd5b6001819080600181540180825580915050600190039060005260206000200160009091909190916101000a81548173ffffffffffffffffffffffffffffffffffffffff021916908373ffffffffffffffffffffffffffffffffffffffff16021790555050565b610e3433611671565b610e73576040517f08c379a0000000000000000000000000000000000000000000000000000000008152600401610e6a90611a83565b60405180910390fd5b600560008373ffffffffffffffffffffffffffffffffffffffff1673ffffffffffffffffffffffffffffffffffffffff16815260200190815260200160002060009054906101000a900460ff16610eff576040517f08c379a0000000000000000000000000000000000000000000000000000000008152600401610ef690611ea6565b60405180910390fd5b60008111610f42576040517f08c379a0000000000000000000000000000000000000000000000000000000008152600401610f3990611f38565b60405180910390fd5b6000600282610f519190611f58565b905080471015610f96576040517f08c379a0000000000000000000000000000000000000000000000000000000008152600401610f8d9061200c565b60405180910390fd5b8273ffffffffffffffffffffffffffffffffffffffff166108fc829081150290604051600060405180830381858888f19350505050158015610fdc573d6000803e3d6000fd5b5081600460003373ffffffffffffffffffffffffffffffffffffffff1673ffffffffffffffffffffffffffffffffffffffff168152602001908152602001600020600001600082825461102f9190611c96565b9250508190555082600460003373ffffffffffffffffffffffffffffffffffffffff1673ffffffffffffffffffffffffffffffffffffffff16815260200190815260200160002060010160006101000a81548173ffffffffffffffffffffffffffffffffffffffff021916908373ffffffffffffffffffffffffffffffffffffffff1602179055508273ffffffffffffffffffffffffffffffffffffffff163373ffffffffffffffffffffffffffffffffffffffff167f04297192211dd6ce4c4f2aac1d314a51360598d084022b5e7a4148b2dabc9898846040516111149190611922565b60405180910390a3505050565b60008054906101000a900473ffffffffffffffffffffffffffffffffffffffff1681565b6000600460008373ffffffffffffffffffffffffffffffffffffffff1673ffffffffffffffffffffffffffffffffffffffff168152602001908152602001600020600001549050919050565b60008054906101000a900473ffffffffffffffffffffffffffffffffffffffff1673ffffffffffffffffffffffffffffffffffffffff163373ffffffffffffffffffffffffffffffffffffffff161461121f576040517f08c379a000000000000000000000000000000000000000000000000000000000815260040161121690611d3c565b60405180910390fd5b60008111611262576040517f08c379a00000000000000000000000000000000000000000000000000000000081526004016112599061209e565b60405180910390fd5b806007819055506001600860006101000a81548160ff02191690831515021790555050565b6002818154811061129757600080fd5b906000526020600020016000915054906101000a900473ffffffffffffffffffffffffffffffffffffffff1681565b60008054906101000a900473ffffffffffffffffffffffffffffffffffffffff1673ffffffffffffffffffffffffffffffffffffffff163373ffffffffffffffffffffffffffffffffffffffff1614611354576040517f08c379a000000000000000000000000000000000000000000000000000000000815260040161134b90611d3c565b60405180910390fd5b6000600360008473ffffffffffffffffffffffffffffffffffffffff1673ffffffffffffffffffffffffffffffffffffffff16815260200190815260200160002082815481106113a7576113a66120be565b5b906000526020600020906003020190508060010160009054906101000a900460ff16611408576040517f08c379a00000000000000000000000000000000000000000000000000000000081526004016113ff9061215f565b60405180910390fd5b8060010160159054906101000a900460ff161561145a576040517f08c379a0000000000000000000000000000000000000000000000000000000008152600401611451906121cb565b60405180910390fd5b338160010160016101000a81548173ffffffffffffffffffffffffffffffffffffffff021916908373ffffffffffffffffffffffffffffffffffffffff16021790555060018160010160156101000a81548160ff021916908315150217905550505050565b600181815481106114cf57600080fd5b906000526020600020016000915054906101000a900473ffffffffffffffffffffffffffffffffffffffff1681565b60056020528060005260406000206000915054906101000a900460ff1681565b600080600360008473ffffffffffffffffffffffffffffffffffffffff1673ffffffffffffffffffffffffffffffffffffffff16815260200190815260200160002080549050905060005b8181101561166a57600360008573ffffffffffffffffffffffffffffffffffffffff1673ffffffffffffffffffffffffffffffffffffffff16815260200190815260200160002081815481106115c2576115c16120be565b5b906000526020600020906003020160010160159054906101000a900460ff161561165757600360008573ffffffffffffffffffffffffffffffffffffffff1673ffffffffffffffffffffffffffffffffffffffff1681526020019081526020016000208181548110611637576116366120be565b5b906000526020600020906003020160000154836116549190611c96565b92505b8080611662906121eb565b915050611569565b5050919050565b600080600090505b600180549050811015611714578273ffffffffffffffffffffffffffffffffffffffff16600182815481106116b1576116b06120be565b5b9060005260206000200160009054906101000a900473ffffffffffffffffffffffffffffffffffffffff1673ffffffffffffffffffffffffffffffffffffffff160361170157600191505061171a565b808061170c906121eb565b915050611679565b50600090505b919050565b600080fd5b600073ffffffffffffffffffffffffffffffffffffffff82169050919050565b600061174f82611724565b9050919050565b61175f81611744565b811461176a57600080fd5b50565b60008135905061177c81611756565b92915050565b6000602082840312156117985761179761171f565b5b60006117a68482850161176d565b91505092915050565b6000819050919050565b6117c2816117af565b82525050565b6117d181611744565b82525050565b60006040820190506117ec60008301856117b9565b6117f960208301846117c8565b9392505050565b611809816117af565b811461181457600080fd5b50565b60008135905061182681611800565b92915050565b600080604083850312156118435761184261171f565b5b60006118518582860161176d565b925050602061186285828601611817565b9150509250929050565b60008115159050919050565b6118818161186c565b82525050565b600060a08201905061189c60008301886117b9565b6118a96020830187611878565b6118b660408301866117c8565b6118c36060830185611878565b6118d060808301846117b9565b9695505050505050565b60006020820190506118ef60008301846117c8565b92915050565b60006020828403121561190b5761190a61171f565b5b600061191984828501611817565b91505092915050565b600060208201905061193760008301846117b9565b92915050565b60006020820190506119526000830184611878565b92915050565b600061196382611724565b9050919050565b61197381611958565b811461197e57600080fd5b50565b6000813590506119908161196a565b92915050565b600080604083850312156119ad576119ac61171f565b5b60006119bb85828601611981565b92505060206119cc85828601611817565b9150509250929050565b6119df81611958565b82525050565b60006020820190506119fa60008301846119d6565b92915050565b600082825260208201905092915050565b7f4f6e6c79207265676973746572656420666163746f726965732063616e20706560008201527f72666f726d207468697320616374696f6e2e0000000000000000000000000000602082015250565b6000611a6d603283611a00565b9150611a7882611a11565b604082019050919050565b60006020820190508181036000830152611a9c81611a60565b9050919050565b7f456d697373696f6e732064617461206d7573742062652067726561746572207460008201527f68616e207a65726f204d54434f32652e00000000000000000000000000000000602082015250565b6000611aff603083611a00565b9150611b0a82611aa3565b604082019050919050565b60006020820190508181036000830152611b2e81611af2565b9050919050565b7f496e73756666696369656e7420617661696c61626c6520637265646974732e00600082015250565b6000611b6b601f83611a00565b9150611b7682611b35565b602082019050919050565b60006020820190508181036000830152611b9a81611b5e565b9050919050565b7f4e487b7100000000000000000000000000000000000000000000000000000000600052601160045260246000fd5b6000611bdb826117af565b9150611be6836117af565b9250828203905081811115611bfe57611bfd611ba1565b5b92915050565b7f4f6e6c792072656769737465726564206f7267616e697a6174696f6e7320636160008201527f6e20706572666f726d207468697320616374696f6e2e00000000000000000000602082015250565b6000611c60603683611a00565b9150611c6b82611c04565b604082019050919050565b60006020820190508181036000830152611c8f81611c53565b9050919050565b6000611ca1826117af565b9150611cac836117af565b9250828201905080821115611cc457611cc3611ba1565b5b92915050565b7f4f6e6c7920676f7665726e6d656e7420626f64792063616e20706572666f726d60008201527f207468697320616374696f6e2e00000000000000000000000000000000000000602082015250565b6000611d26602d83611a00565b9150611d3182611cca565b604082019050919050565b60006020820190508181036000830152611d5581611d19565b9050919050565b7f496e73756666696369656e7420636f6e74726163742062616c616e63652e0000600082015250565b6000611d92601e83611a00565b9150611d9d82611d5c565b602082019050919050565b60006020820190508181036000830152611dc181611d85565b9050919050565b7f526567697374726174696f6e20666565206973206e6f742066696e616c697a6560008201527f64207965742e0000000000000000000000000000000000000000000000000000602082015250565b6000611e24602683611a00565b9150611e2f82611dc8565b604082019050919050565b60006020820190508181036000830152611e5381611e17565b9050919050565b7f4f7267616e697a6174696f6e206973206e6f74206365727469666965642e0000600082015250565b6000611e90601e83611a00565b9150611e9b82611e5a565b602082019050919050565b60006020820190508181036000830152611ebf81611e83565b9050919050565b7f4372656469747320616d6f756e742073686f756c64206265206772656174657260008201527f207468616e207a65726f2e000000000000000000000000000000000000000000602082015250565b6000611f22602b83611a00565b9150611f2d82611ec6565b604082019050919050565b60006020820190508181036000830152611f5181611f15565b9050919050565b6000611f63826117af565b9150611f6e836117af565b9250828202611f7c816117af565b91508282048414831517611f9357611f92611ba1565b5b5092915050565b7f496e73756666696369656e742045746865722062616c616e636520696e20746860008201527f6520636f6e74726163742e000000000000000000000000000000000000000000602082015250565b6000611ff6602b83611a00565b915061200182611f9a565b604082019050919050565b6000602082019050818103600083015261202581611fe9565b9050919050565b7f526567697374726174696f6e206665652073686f756c6420626520677265617460008201527f6572207468616e207a65726f2e00000000000000000000000000000000000000602082015250565b6000612088602d83611a00565b91506120938261202c565b604082019050919050565b600060208201905081810360008301526120b78161207b565b9050919050565b7f4e487b7100000000000000000000000000000000000000000000000000000000600052603260045260246000fd5b7f4e6f20656d697373696f6e732064617461207375626d6974746564206174207460008201527f68697320696e6465782e00000000000000000000000000000000000000000000602082015250565b6000612149602a83611a00565b9150612154826120ed565b604082019050919050565b600060208201905081810360008301526121788161213c565b9050919050565b7f456d697373696f6e73206461746120616c72656164792076657269666965642e600082015250565b60006121b5602083611a00565b91506121c08261217f565b602082019050919050565b600060208201905081810360008301526121e4816121a8565b9050919050565b60006121f6826117af565b91507fffffffffffffffffffffffffffffffffffffffffffffffffffffffffffffffff820361222857612227611ba1565b5b60018201905091905056fea2646970667358221220a9e38a67f866a60ed6ca5519784160cc3e30569ef2a76097577720eccf51878d64736f6c63430008150033",
  "immutableReferences": {},
  "source": "// SPDX-License-Identifier: GPL-3.0\r\npragma solidity ^0.8.0;\r\n\r\n/**\r\n * @title CarbonCap\r\n * @dev Manages emissions monitoring and carbon credit transactions for factories.\r\n */\r\ncontract CarbonCap {\r\n    // Structure to store emissions data for a factory\r\n    struct EmissionsData {\r\n        uint emissions; // Emissions in metric tons of carbon dioxide equivalent (MTCO2e)\r\n        bool dataSubmitted; // Indicates if emissions data is submitted\r\n        address verifier; // Address of the entity verifying the emissions data\r\n        bool verified; // Indicates if emissions data is verified\r\n        uint timestamp; // Timestamp when emissions data is recorded\r\n    }\r\n\r\n    // Structure to represent carbon credits\r\n    struct CarbonCredit {\r\n        uint amount; // Amount of carbon credits in MTCO2e\r\n        address organization; // Organization providing carbon credits\r\n    }\r\n\r\n    address payable public governmentBody;\r\n    address payable[] public registeredFactories;\r\n    address payable[] public registeredOrganizations;\r\n\r\n    mapping(address => EmissionsData[]) public factoryEmissions;\r\n    mapping(address => CarbonCredit) public availableCredits;\r\n    mapping(address => bool) public certifiedOrganizations;\r\n    mapping(address => uint) public registrationFeesPaid;\r\n\r\n    uint public registrationFee;\r\n    bool public registrationFeeFinalized;\r\n\r\n    event RegistrationFeePaid(address indexed payer, uint amount);\r\n    event CreditsPurchased(address indexed buyer, address indexed organization, uint amount);\r\n\r\n    // Modifier to check if the registration fee is finalized\r\n    modifier registrationFeeIsFinalized() {\r\n        require(registrationFeeFinalized, \"Registration fee is not finalized yet.\");\r\n        _;\r\n    }\r\n\r\n    // Modifier to check if the sender is the government body\r\n    modifier onlyGovernmentBody() {\r\n        require(msg.sender == governmentBody, \"Only government body can perform this action.\");\r\n        _;\r\n    }\r\n\r\n    // Modifier to check if the sender is a registered organization\r\n    modifier onlyRegisteredOrganization() {\r\n        require(certifiedOrganizations[msg.sender], \"Only registered organizations can perform this action.\");\r\n        _;\r\n    }\r\n\r\n    // Modifier to check if the sender is a registered factory\r\n    modifier onlyRegisteredFactory() {\r\n        require(isRegisteredFactory(msg.sender), \"Only registered factories can perform this action.\");\r\n        _;\r\n    }\r\n\r\n    constructor() payable {\r\n        governmentBody = payable(msg.sender);\r\n    }\r\n\r\n    // Function to register a factory by the government body\r\n    function registerFactory(address factory) public onlyGovernmentBody {\r\n        registeredFactories.push(payable(factory));\r\n    }\r\n\r\n    // Function to record emissions data by registered factories\r\n    function recordEmissions(uint emissions) public onlyRegisteredFactory {\r\n        require(emissions > 0, \"Emissions data must be greater than zero MTCO2e.\");\r\n        require(availableCredits[msg.sender].amount >= emissions, \"Insufficient available credits.\");\r\n\r\n        availableCredits[msg.sender].amount -= emissions;\r\n\r\n        factoryEmissions[msg.sender].push(EmissionsData({\r\n            emissions: emissions,\r\n            dataSubmitted: true,\r\n            verifier: address(0),\r\n            verified: false,\r\n            timestamp: block.timestamp\r\n        }));\r\n    }\r\n\r\n    // Function to verify emissions data by the government body\r\n    function verifyEmissions(address factory, uint dataIndex) public onlyGovernmentBody {\r\n        EmissionsData storage data = factoryEmissions[factory][dataIndex];\r\n        require(data.dataSubmitted, \"No emissions data submitted at this index.\");\r\n        require(!data.verified, \"Emissions data already verified.\");\r\n\r\n        data.verifier = msg.sender;\r\n        data.verified = true;\r\n    }\r\n\r\n    // Function to get the total verified emissions for a factory\r\n    function getTotalEmissions(address factory) public view returns (uint totalEmissions) {\r\n        uint emissionsCount = factoryEmissions[factory].length;\r\n        for (uint i = 0; i < emissionsCount; i++) {\r\n            if (factoryEmissions[factory][i].verified) {\r\n                totalEmissions += factoryEmissions[factory][i].emissions;\r\n            }\r\n        }\r\n    }\r\n\r\n    // Function to get available credits for a factory\r\n    function getAvailableCredits(address factory) public view returns (uint creditsAvailable) {\r\n        creditsAvailable = availableCredits[factory].amount;\r\n    }\r\n\r\n    // Function to set the registration fee by the government body\r\n    function setRegistrationFee(uint fee) external onlyGovernmentBody {\r\n        require(fee > 0, \"Registration fee should be greater than zero.\");\r\n        registrationFee = fee;\r\n        registrationFeeFinalized = true; // Marking registration fee as finalized\r\n    }\r\n\r\n    // Function for registered organizations to pay the registration fee\r\n    function payRegistrationFee() external payable onlyRegisteredOrganization {\r\n        registrationFeesPaid[msg.sender] += msg.value; // Track the fee paid by the organization\r\n        payable(governmentBody).transfer(registrationFee);\r\n        emit RegistrationFeePaid(msg.sender, msg.value); // Log the registration fee payment\r\n    }\r\n\r\n    // Function for registered factories to buy credits from a certified organization\r\n    function buyCreditsFromOrganization(address payable organization, uint creditsAmount) external onlyRegisteredFactory {\r\n        require(certifiedOrganizations[organization], \"Organization is not certified.\");\r\n        require(creditsAmount > 0, \"Credits amount should be greater than zero.\");\r\n\r\n        uint creditsPrice = creditsAmount * 2; // Calculate the price for the requested credits\r\n        require(address(this).balance >= creditsPrice, \"Insufficient Ether balance in the contract.\");\r\n\r\n        organization.transfer(creditsPrice); // Transfer Ether (2 times the credits price) to the organization\r\n\r\n        availableCredits[msg.sender].amount += creditsAmount; // Update factory's available credits\r\n        availableCredits[msg.sender].organization = organization;\r\n\r\n        emit CreditsPurchased(msg.sender, organization, creditsAmount); // Log the purchase of credits\r\n    }\r\n\r\n    // Function for the government body to withdraw Ether from the contract\r\n    function withdrawEther(uint amount) external onlyGovernmentBody {\r\n        require(amount <= address(this).balance, \"Insufficient contract balance.\");\r\n        payable(governmentBody).transfer(amount);\r\n    }\r\n\r\n    // Function for the government body to certify an organization\r\n    function certifyOrganization(address organization) public onlyGovernmentBody registrationFeeIsFinalized {\r\n        certifiedOrganizations[organization] = true;\r\n        registeredOrganizations.push(payable(organization));\r\n    }\r\n\r\n    // Internal function to check if an address is a registered factory\r\n    function isRegisteredFactory(address _address) internal view returns (bool) {\r\n        for (uint i = 0; i < registeredFactories.length; i++) {\r\n            if (registeredFactories[i] == _address) {\r\n                return true;\r\n            }\r\n        }\r\n        return false;\r\n    }\r\n        // Function to fetch the government body address\r\n    function getGovernmentBodyAddress() public view returns (address) {\r\n        return governmentBody;\r\n    }\r\n}\r\n",
  "sourcePath": "D:\\Blockchain-Project\\carbon-cap\\contracts\\CarbonCap.sol",
  "compiler": {
    "name": "solc",
    "version": "0.8.21+commit.d9974bed.Emscripten.clang"
  },
  "schemaVersion": "3.4.16",
  "updatedAt": "2023-11-26T14:57:17.490Z",
  "networkType": "ethereum",
  "devdoc": {
    "details": "Manages emissions monitoring and carbon credit transactions for factories.",
    "kind": "dev",
    "methods": {},
    "title": "CarbonCap",
    "version": 1
  },
  "userdoc": {
    "kind": "user",
    "methods": {},
    "version": 1
  }
}