{
  "contractName": "CarbonCap",
  "abi": [
    {
      "inputs": [],
      "stateMutability": "payable",
      "type": "constructor",
      "payable": true
    },
    {
      "anonymous": false,
      "inputs": [
        {
          "indexed": true,
          "internalType": "address",
          "name": "buyer",
          "type": "address"
        },
        {
          "indexed": true,
          "internalType": "address",
          "name": "organization",
          "type": "address"
        },
        {
          "indexed": false,
          "internalType": "uint256",
          "name": "amount",
          "type": "uint256"
        }
      ],
      "name": "CreditsPurchased",
      "type": "event"
    },
    {
      "anonymous": false,
      "inputs": [
        {
          "indexed": true,
          "internalType": "address",
          "name": "receiver",
          "type": "address"
        },
        {
          "indexed": true,
          "internalType": "address",
          "name": "payer",
          "type": "address"
        },
        {
          "indexed": false,
          "internalType": "uint256",
          "name": "amount",
          "type": "uint256"
        }
      ],
      "name": "RegistrationFeePaid",
      "type": "event"
    },
    {
      "inputs": [
        {
          "internalType": "address",
          "name": "",
          "type": "address"
        }
      ],
      "name": "availableCredits",
      "outputs": [
        {
          "internalType": "uint256",
          "name": "amount",
          "type": "uint256"
        },
        {
          "internalType": "address",
          "name": "organization",
          "type": "address"
        }
      ],
      "stateMutability": "view",
      "type": "function",
      "constant": true
    },
    {
      "inputs": [
        {
          "internalType": "address",
          "name": "",
          "type": "address"
        }
      ],
      "name": "certifiedOrganizations",
      "outputs": [
        {
          "internalType": "bool",
          "name": "",
          "type": "bool"
        }
      ],
      "stateMutability": "view",
      "type": "function",
      "constant": true
    },
    {
      "inputs": [
        {
          "internalType": "address",
          "name": "",
          "type": "address"
        },
        {
          "internalType": "uint256",
          "name": "",
          "type": "uint256"
        }
      ],
      "name": "factoryEmissions",
      "outputs": [
        {
          "internalType": "uint256",
          "name": "emissions",
          "type": "uint256"
        },
        {
          "internalType": "bool",
          "name": "dataSubmitted",
          "type": "bool"
        },
        {
          "internalType": "address",
          "name": "verifier",
          "type": "address"
        },
        {
          "internalType": "bool",
          "name": "verified",
          "type": "bool"
        },
        {
          "internalType": "uint256",
          "name": "timestamp",
          "type": "uint256"
        }
      ],
      "stateMutability": "view",
      "type": "function",
      "constant": true
    },
    {
      "inputs": [],
      "name": "governmentBody",
      "outputs": [
        {
          "internalType": "address payable",
          "name": "",
          "type": "address"
        }
      ],
      "stateMutability": "view",
      "type": "function",
      "constant": true
    },
    {
      "inputs": [
        {
          "internalType": "uint256",
          "name": "",
          "type": "uint256"
        }
      ],
      "name": "registeredFactories",
      "outputs": [
        {
          "internalType": "address payable",
          "name": "",
          "type": "address"
        }
      ],
      "stateMutability": "view",
      "type": "function",
      "constant": true
    },
    {
      "inputs": [
        {
          "internalType": "uint256",
          "name": "",
          "type": "uint256"
        }
      ],
      "name": "registeredOrganizations",
      "outputs": [
        {
          "internalType": "address payable",
          "name": "",
          "type": "address"
        }
      ],
      "stateMutability": "view",
      "type": "function",
      "constant": true
    },
    {
      "inputs": [],
      "name": "registrationFee",
      "outputs": [
        {
          "internalType": "uint256",
          "name": "",
          "type": "uint256"
        }
      ],
      "stateMutability": "view",
      "type": "function",
      "constant": true
    },
    {
      "inputs": [],
      "name": "registrationFeeFinalized",
      "outputs": [
        {
          "internalType": "bool",
          "name": "",
          "type": "bool"
        }
      ],
      "stateMutability": "view",
      "type": "function",
      "constant": true
    },
    {
      "inputs": [
        {
          "internalType": "address",
          "name": "",
          "type": "address"
        }
      ],
      "name": "registrationFeePaidByOrganization",
      "outputs": [
        {
          "internalType": "bool",
          "name": "",
          "type": "bool"
        }
      ],
      "stateMutability": "view",
      "type": "function",
      "constant": true
    },
    {
      "inputs": [
        {
          "internalType": "address",
          "name": "",
          "type": "address"
        }
      ],
      "name": "registrationFeesPaid",
      "outputs": [
        {
          "internalType": "uint256",
          "name": "",
          "type": "uint256"
        }
      ],
      "stateMutability": "view",
      "type": "function",
      "constant": true
    },
    {
      "inputs": [
        {
          "internalType": "address",
          "name": "factory",
          "type": "address"
        }
      ],
      "name": "registerFactory",
      "outputs": [],
      "stateMutability": "nonpayable",
      "type": "function"
    },
    {
      "inputs": [
        {
          "internalType": "uint256",
          "name": "emissions",
          "type": "uint256"
        }
      ],
      "name": "recordEmissions",
      "outputs": [],
      "stateMutability": "nonpayable",
      "type": "function"
    },
    {
      "inputs": [
        {
          "internalType": "address",
          "name": "factory",
          "type": "address"
        },
        {
          "internalType": "uint256",
          "name": "dataIndex",
          "type": "uint256"
        }
      ],
      "name": "verifyEmissions",
      "outputs": [],
      "stateMutability": "nonpayable",
      "type": "function"
    },
    {
      "inputs": [
        {
          "internalType": "address",
          "name": "factory",
          "type": "address"
        }
      ],
      "name": "getTotalEmissions",
      "outputs": [
        {
          "internalType": "uint256",
          "name": "totalEmissions",
          "type": "uint256"
        }
      ],
      "stateMutability": "view",
      "type": "function",
      "constant": true
    },
    {
      "inputs": [
        {
          "internalType": "address",
          "name": "factory",
          "type": "address"
        }
      ],
      "name": "getAvailableCredits",
      "outputs": [
        {
          "internalType": "uint256",
          "name": "creditsAvailable",
          "type": "uint256"
        }
      ],
      "stateMutability": "view",
      "type": "function",
      "constant": true
    },
    {
      "inputs": [
        {
          "internalType": "uint256",
          "name": "fee",
          "type": "uint256"
        }
      ],
      "name": "setRegistrationFee",
      "outputs": [],
      "stateMutability": "nonpayable",
      "type": "function"
    },
    {
      "inputs": [],
      "name": "payRegistrationFee",
      "outputs": [],
      "stateMutability": "payable",
      "type": "function",
      "payable": true
    },
    {
      "inputs": [
        {
          "internalType": "address payable",
          "name": "organization",
          "type": "address"
        },
        {
          "internalType": "uint256",
          "name": "creditsAmount",
          "type": "uint256"
        }
      ],
      "name": "buyCreditsFromOrganization",
      "outputs": [],
      "stateMutability": "nonpayable",
      "type": "function"
    },
    {
      "inputs": [
        {
          "internalType": "uint256",
          "name": "amount",
          "type": "uint256"
        }
      ],
      "name": "withdrawEther",
      "outputs": [],
      "stateMutability": "nonpayable",
      "type": "function"
    },
    {
      "inputs": [
        {
          "internalType": "address",
          "name": "organization",
          "type": "address"
        }
      ],
      "name": "certifyOrganization",
      "outputs": [],
      "stateMutability": "nonpayable",
      "type": "function"
    },
    {
      "inputs": [],
      "name": "getGovernmentBodyAddress",
      "outputs": [
        {
          "internalType": "address",
          "name": "",
          "type": "address"
        }
      ],
      "stateMutability": "view",
      "type": "function",
      "constant": true
    }
  ],
  "bytecode": "0x6080604052670de0b6b3a7640000600855336000806101000a81548173ffffffffffffffffffffffffffffffffffffffff021916908373ffffffffffffffffffffffffffffffffffffffff1602179055506126788061005f6000396000f3fe60806040526004361061012a5760003560e01c8063783ff1f1116100ab578063c320c7271161006f578063c320c727146103e8578063c9a89f1114610411578063d10de84e1461044e578063deb9011414610477578063e5e5ef88146104b4578063e98c59cc146104f15761012a565b8063783ff1f1146102f15780637f66d3041461031a5780637f8a878f14610343578063afc3f9b61461036e578063b065a8e5146103ab5761012a565b80632432c0f1116100f25780632432c0f11461022d5780633bed33ce1461023757806344de3595146102605780635b1c3ce91461028b5780637795ede4146102c85761012a565b8063046711231461012f5780630df2ec7c1461016d57806312116b0f146101ae57806313bfa35b146101d957806314c44e0914610202575b600080fd5b34801561013b57600080fd5b5061015660048036038101906101519190611a27565b61052e565b604051610164929190611a7c565b60405180910390f35b34801561017957600080fd5b50610194600480360381019061018f9190611ad1565b610572565b6040516101a5959493929190611b2c565b60405180910390f35b3480156101ba57600080fd5b506101c36105ff565b6040516101d09190611b7f565b60405180910390f35b3480156101e557600080fd5b5061020060048036038101906101fb9190611b9a565b610628565b005b34801561020e57600080fd5b506102176108dd565b6040516102249190611bc7565b60405180910390f35b6102356108e3565b005b34801561024357600080fd5b5061025e60048036038101906102599190611b9a565b610b98565b005b34801561026c57600080fd5b50610275610cd3565b6040516102829190611be2565b60405180910390f35b34801561029757600080fd5b506102b260048036038101906102ad9190611a27565b610ce6565b6040516102bf9190611bc7565b60405180910390f35b3480156102d457600080fd5b506102ef60048036038101906102ea9190611a27565b610cfe565b005b3480156102fd57600080fd5b5061031860048036038101906103139190611a27565b610f28565b005b34801561032657600080fd5b50610341600480360381019061033c9190611c3b565b611067565b005b34801561034f57600080fd5b506103586113a6565b6040516103659190611c8a565b60405180910390f35b34801561037a57600080fd5b5061039560048036038101906103909190611a27565b6113ca565b6040516103a29190611be2565b60405180910390f35b3480156103b757600080fd5b506103d260048036038101906103cd9190611a27565b6113ea565b6040516103df9190611bc7565b60405180910390f35b3480156103f457600080fd5b5061040f600480360381019061040a9190611b9a565b611436565b005b34801561041d57600080fd5b5061043860048036038101906104339190611b9a565b61152c565b6040516104459190611c8a565b60405180910390f35b34801561045a57600080fd5b5061047560048036038101906104709190611ad1565b61156b565b005b34801561048357600080fd5b5061049e60048036038101906104999190611b9a565b611764565b6040516104ab9190611c8a565b60405180910390f35b3480156104c057600080fd5b506104db60048036038101906104d69190611a27565b6117a3565b6040516104e89190611be2565b60405180910390f35b3480156104fd57600080fd5b5061051860048036038101906105139190611a27565b6117c3565b6040516105259190611bc7565b60405180910390f35b60046020528060005260406000206000915090508060000154908060010160009054906101000a900473ffffffffffffffffffffffffffffffffffffffff16905082565b6003602052816000526040600020818154811061058e57600080fd5b9060005260206000209060030201600091509150508060000154908060010160009054906101000a900460ff16908060010160019054906101000a900473ffffffffffffffffffffffffffffffffffffffff16908060010160159054906101000a900460ff16908060020154905085565b60008060009054906101000a900473ffffffffffffffffffffffffffffffffffffffff16905090565b61063133611916565b610670576040517f08c379a000000000000000000000000000000000000000000000000000000000815260040161066790611d28565b60405180910390fd5b600081116106b3576040517f08c379a00000000000000000000000000000000000000000000000000000000081526004016106aa90611dba565b60405180910390fd5b80600460003373ffffffffffffffffffffffffffffffffffffffff1673ffffffffffffffffffffffffffffffffffffffff168152602001908152602001600020600001541015610738576040517f08c379a000000000000000000000000000000000000000000000000000000000815260040161072f90611e26565b60405180910390fd5b80600460003373ffffffffffffffffffffffffffffffffffffffff1673ffffffffffffffffffffffffffffffffffffffff168152602001908152602001600020600001600082825461078a9190611e75565b92505081905550600360003373ffffffffffffffffffffffffffffffffffffffff1673ffffffffffffffffffffffffffffffffffffffff1681526020019081526020016000206040518060a00160405280838152602001600115158152602001600073ffffffffffffffffffffffffffffffffffffffff1681526020016000151581526020014281525090806001815401808255809150506001900390600052602060002090600302016000909190919091506000820151816000015560208201518160010160006101000a81548160ff02191690831515021790555060408201518160010160016101000a81548173ffffffffffffffffffffffffffffffffffffffff021916908373ffffffffffffffffffffffffffffffffffffffff16021790555060608201518160010160156101000a81548160ff02191690831515021790555060808201518160020155505050565b60085481565b600560003373ffffffffffffffffffffffffffffffffffffffff1673ffffffffffffffffffffffffffffffffffffffff16815260200190815260200160002060009054906101000a900460ff1661096f576040517f08c379a000000000000000000000000000000000000000000000000000000000815260040161096690611f1b565b60405180910390fd5b600760003373ffffffffffffffffffffffffffffffffffffffff1673ffffffffffffffffffffffffffffffffffffffff16815260200190815260200160002060009054906101000a900460ff16156109fc576040517f08c379a00000000000000000000000000000000000000000000000000000000081526004016109f390611f87565b60405180910390fd5b3373ffffffffffffffffffffffffffffffffffffffff1660008054906101000a900473ffffffffffffffffffffffffffffffffffffffff1673ffffffffffffffffffffffffffffffffffffffff167f17faf79b2a18c9b544aefb9ea2154b0e1f420f5ced7df52a05d56887d5cc45a534604051610a799190611bc7565b60405180910390a334600660003373ffffffffffffffffffffffffffffffffffffffff1673ffffffffffffffffffffffffffffffffffffffff1681526020019081526020016000206000828254610ad09190611fa7565b925050819055506001600760003373ffffffffffffffffffffffffffffffffffffffff1673ffffffffffffffffffffffffffffffffffffffff16815260200190815260200160002060006101000a81548160ff02191690831515021790555060008054906101000a900473ffffffffffffffffffffffffffffffffffffffff1673ffffffffffffffffffffffffffffffffffffffff166108fc349081150290604051600060405180830381858888f19350505050158015610b95573d6000803e3d6000fd5b50565b60008054906101000a900473ffffffffffffffffffffffffffffffffffffffff1673ffffffffffffffffffffffffffffffffffffffff163373ffffffffffffffffffffffffffffffffffffffff1614610c26576040517f08c379a0000000000000000000000000000000000000000000000000000000008152600401610c1d9061204d565b60405180910390fd5b47811115610c69576040517f08c379a0000000000000000000000000000000000000000000000000000000008152600401610c60906120b9565b60405180910390fd5b60008054906101000a900473ffffffffffffffffffffffffffffffffffffffff1673ffffffffffffffffffffffffffffffffffffffff166108fc829081150290604051600060405180830381858888f19350505050158015610ccf573d6000803e3d6000fd5b5050565b600960009054906101000a900460ff1681565b60066020528060005260406000206000915090505481565b60008054906101000a900473ffffffffffffffffffffffffffffffffffffffff1673ffffffffffffffffffffffffffffffffffffffff163373ffffffffffffffffffffffffffffffffffffffff1614610d8c576040517f08c379a0000000000000000000000000000000000000000000000000000000008152600401610d839061204d565b60405180910390fd5b80600560008273ffffffffffffffffffffffffffffffffffffffff1673ffffffffffffffffffffffffffffffffffffffff16815260200190815260200160002060009054906101000a900460ff1615610e1a576040517f08c379a0000000000000000000000000000000000000000000000000000000008152600401610e119061214b565b60405180910390fd5b600960009054906101000a900460ff16610e69576040517f08c379a0000000000000000000000000000000000000000000000000000000008152600401610e60906121dd565b60405180910390fd5b6001600560008473ffffffffffffffffffffffffffffffffffffffff1673ffffffffffffffffffffffffffffffffffffffff16815260200190815260200160002060006101000a81548160ff0219169083151502179055506002829080600181540180825580915050600190039060005260206000200160009091909190916101000a81548173ffffffffffffffffffffffffffffffffffffffff021916908373ffffffffffffffffffffffffffffffffffffffff1602179055505050565b60008054906101000a900473ffffffffffffffffffffffffffffffffffffffff1673ffffffffffffffffffffffffffffffffffffffff163373ffffffffffffffffffffffffffffffffffffffff1614610fb6576040517f08c379a0000000000000000000000000000000000000000000000000000000008152600401610fad9061204d565b60405180910390fd5b80610fc081611916565b15611000576040517f08c379a0000000000000000000000000000000000000000000000000000000008152600401610ff790612249565b60405180910390fd5b6001829080600181540180825580915050600190039060005260206000200160009091909190916101000a81548173ffffffffffffffffffffffffffffffffffffffff021916908373ffffffffffffffffffffffffffffffffffffffff1602179055505050565b61107033611916565b6110af576040517f08c379a00000000000000000000000000000000000000000000000000000000081526004016110a690611d28565b60405180910390fd5b600560008373ffffffffffffffffffffffffffffffffffffffff1673ffffffffffffffffffffffffffffffffffffffff16815260200190815260200160002060009054906101000a900460ff1661113b576040517f08c379a0000000000000000000000000000000000000000000000000000000008152600401611132906122b5565b60405180910390fd5b6000811161117e576040517f08c379a000000000000000000000000000000000000000000000000000000000815260040161117590612347565b60405180910390fd5b600760008373ffffffffffffffffffffffffffffffffffffffff1673ffffffffffffffffffffffffffffffffffffffff16815260200190815260200160002060009054906101000a900460ff1661120a576040517f08c379a0000000000000000000000000000000000000000000000000000000008152600401611201906123d9565b60405180910390fd5b600060028261121991906123f9565b90508273ffffffffffffffffffffffffffffffffffffffff166108fc829081150290604051600060405180830381858888f19350505050158015611261573d6000803e3d6000fd5b5081600460003373ffffffffffffffffffffffffffffffffffffffff1673ffffffffffffffffffffffffffffffffffffffff16815260200190815260200160002060000160008282546112b49190611fa7565b9250508190555082600460003373ffffffffffffffffffffffffffffffffffffffff1673ffffffffffffffffffffffffffffffffffffffff16815260200190815260200160002060010160006101000a81548173ffffffffffffffffffffffffffffffffffffffff021916908373ffffffffffffffffffffffffffffffffffffffff1602179055508273ffffffffffffffffffffffffffffffffffffffff163373ffffffffffffffffffffffffffffffffffffffff167f04297192211dd6ce4c4f2aac1d314a51360598d084022b5e7a4148b2dabc9898846040516113999190611bc7565b60405180910390a3505050565b60008054906101000a900473ffffffffffffffffffffffffffffffffffffffff1681565b60076020528060005260406000206000915054906101000a900460ff1681565b6000600460008373ffffffffffffffffffffffffffffffffffffffff1673ffffffffffffffffffffffffffffffffffffffff168152602001908152602001600020600001549050919050565b60008054906101000a900473ffffffffffffffffffffffffffffffffffffffff1673ffffffffffffffffffffffffffffffffffffffff163373ffffffffffffffffffffffffffffffffffffffff16146114c4576040517f08c379a00000000000000000000000000000000000000000000000000000000081526004016114bb9061204d565b60405180910390fd5b60008111611507576040517f08c379a00000000000000000000000000000000000000000000000000000000081526004016114fe906124ad565b60405180910390fd5b806008819055506001600960006101000a81548160ff02191690831515021790555050565b6002818154811061153c57600080fd5b906000526020600020016000915054906101000a900473ffffffffffffffffffffffffffffffffffffffff1681565b60008054906101000a900473ffffffffffffffffffffffffffffffffffffffff1673ffffffffffffffffffffffffffffffffffffffff163373ffffffffffffffffffffffffffffffffffffffff16146115f9576040517f08c379a00000000000000000000000000000000000000000000000000000000081526004016115f09061204d565b60405180910390fd5b6000600360008473ffffffffffffffffffffffffffffffffffffffff1673ffffffffffffffffffffffffffffffffffffffff168152602001908152602001600020828154811061164c5761164b6124cd565b5b906000526020600020906003020190508060010160009054906101000a900460ff166116ad576040517f08c379a00000000000000000000000000000000000000000000000000000000081526004016116a49061256e565b60405180910390fd5b8060010160159054906101000a900460ff16156116ff576040517f08c379a00000000000000000000000000000000000000000000000000000000081526004016116f6906125da565b60405180910390fd5b338160010160016101000a81548173ffffffffffffffffffffffffffffffffffffffff021916908373ffffffffffffffffffffffffffffffffffffffff16021790555060018160010160156101000a81548160ff021916908315150217905550505050565b6001818154811061177457600080fd5b906000526020600020016000915054906101000a900473ffffffffffffffffffffffffffffffffffffffff1681565b60056020528060005260406000206000915054906101000a900460ff1681565b600080600360008473ffffffffffffffffffffffffffffffffffffffff1673ffffffffffffffffffffffffffffffffffffffff16815260200190815260200160002080549050905060005b8181101561190f57600360008573ffffffffffffffffffffffffffffffffffffffff1673ffffffffffffffffffffffffffffffffffffffff1681526020019081526020016000208181548110611867576118666124cd565b5b906000526020600020906003020160010160159054906101000a900460ff16156118fc57600360008573ffffffffffffffffffffffffffffffffffffffff1673ffffffffffffffffffffffffffffffffffffffff16815260200190815260200160002081815481106118dc576118db6124cd565b5b906000526020600020906003020160000154836118f99190611fa7565b92505b8080611907906125fa565b91505061180e565b5050919050565b600080600090505b6001805490508110156119b9578273ffffffffffffffffffffffffffffffffffffffff1660018281548110611956576119556124cd565b5b9060005260206000200160009054906101000a900473ffffffffffffffffffffffffffffffffffffffff1673ffffffffffffffffffffffffffffffffffffffff16036119a65760019150506119bf565b80806119b1906125fa565b91505061191e565b50600090505b919050565b600080fd5b600073ffffffffffffffffffffffffffffffffffffffff82169050919050565b60006119f4826119c9565b9050919050565b611a04816119e9565b8114611a0f57600080fd5b50565b600081359050611a21816119fb565b92915050565b600060208284031215611a3d57611a3c6119c4565b5b6000611a4b84828501611a12565b91505092915050565b6000819050919050565b611a6781611a54565b82525050565b611a76816119e9565b82525050565b6000604082019050611a916000830185611a5e565b611a9e6020830184611a6d565b9392505050565b611aae81611a54565b8114611ab957600080fd5b50565b600081359050611acb81611aa5565b92915050565b60008060408385031215611ae857611ae76119c4565b5b6000611af685828601611a12565b9250506020611b0785828601611abc565b9150509250929050565b60008115159050919050565b611b2681611b11565b82525050565b600060a082019050611b416000830188611a5e565b611b4e6020830187611b1d565b611b5b6040830186611a6d565b611b686060830185611b1d565b611b756080830184611a5e565b9695505050505050565b6000602082019050611b946000830184611a6d565b92915050565b600060208284031215611bb057611baf6119c4565b5b6000611bbe84828501611abc565b91505092915050565b6000602082019050611bdc6000830184611a5e565b92915050565b6000602082019050611bf76000830184611b1d565b92915050565b6000611c08826119c9565b9050919050565b611c1881611bfd565b8114611c2357600080fd5b50565b600081359050611c3581611c0f565b92915050565b60008060408385031215611c5257611c516119c4565b5b6000611c6085828601611c26565b9250506020611c7185828601611abc565b9150509250929050565b611c8481611bfd565b82525050565b6000602082019050611c9f6000830184611c7b565b92915050565b600082825260208201905092915050565b7f4f6e6c79207265676973746572656420666163746f726965732063616e20706560008201527f72666f726d207468697320616374696f6e2e0000000000000000000000000000602082015250565b6000611d12603283611ca5565b9150611d1d82611cb6565b604082019050919050565b60006020820190508181036000830152611d4181611d05565b9050919050565b7f456d697373696f6e732064617461206d7573742062652067726561746572207460008201527f68616e207a65726f204d54434f32652e00000000000000000000000000000000602082015250565b6000611da4603083611ca5565b9150611daf82611d48565b604082019050919050565b60006020820190508181036000830152611dd381611d97565b9050919050565b7f496e73756666696369656e7420617661696c61626c6520637265646974732e00600082015250565b6000611e10601f83611ca5565b9150611e1b82611dda565b602082019050919050565b60006020820190508181036000830152611e3f81611e03565b9050919050565b7f4e487b7100000000000000000000000000000000000000000000000000000000600052601160045260246000fd5b6000611e8082611a54565b9150611e8b83611a54565b9250828203905081811115611ea357611ea2611e46565b5b92915050565b7f4f6e6c792072656769737465726564206f7267616e697a6174696f6e7320636160008201527f6e20706572666f726d207468697320616374696f6e2e00000000000000000000602082015250565b6000611f05603683611ca5565b9150611f1082611ea9565b604082019050919050565b60006020820190508181036000830152611f3481611ef8565b9050919050565b7f526567697374726174696f6e2066656520616c726561647920706169642e0000600082015250565b6000611f71601e83611ca5565b9150611f7c82611f3b565b602082019050919050565b60006020820190508181036000830152611fa081611f64565b9050919050565b6000611fb282611a54565b9150611fbd83611a54565b9250828201905080821115611fd557611fd4611e46565b5b92915050565b7f4f6e6c7920676f7665726e6d656e7420626f64792063616e20706572666f726d60008201527f207468697320616374696f6e2e00000000000000000000000000000000000000602082015250565b6000612037602d83611ca5565b915061204282611fdb565b604082019050919050565b600060208201905081810360008301526120668161202a565b9050919050565b7f496e73756666696369656e7420636f6e74726163742062616c616e63652e0000600082015250565b60006120a3601e83611ca5565b91506120ae8261206d565b602082019050919050565b600060208201905081810360008301526120d281612096565b9050919050565b7f4f7267616e697a6174696f6e20697320616c726561647920636572746966696560008201527f642e000000000000000000000000000000000000000000000000000000000000602082015250565b6000612135602283611ca5565b9150612140826120d9565b604082019050919050565b6000602082019050818103600083015261216481612128565b9050919050565b7f526567697374726174696f6e20666565206973206e6f742066696e616c697a6560008201527f64207965742e0000000000000000000000000000000000000000000000000000602082015250565b60006121c7602683611ca5565b91506121d28261216b565b604082019050919050565b600060208201905081810360008301526121f6816121ba565b9050919050565b7f466163746f727920697320616c726561647920726567697374657265642e0000600082015250565b6000612233601e83611ca5565b915061223e826121fd565b602082019050919050565b6000602082019050818103600083015261226281612226565b9050919050565b7f4f7267616e697a6174696f6e206973206e6f74206365727469666965642e0000600082015250565b600061229f601e83611ca5565b91506122aa82612269565b602082019050919050565b600060208201905081810360008301526122ce81612292565b9050919050565b7f4372656469747320616d6f756e742073686f756c64206265206772656174657260008201527f207468616e207a65726f2e000000000000000000000000000000000000000000602082015250565b6000612331602b83611ca5565b915061233c826122d5565b604082019050919050565b6000602082019050818103600083015261236081612324565b9050919050565b7f4f7267616e697a6174696f6e206d75737420706179207265676973747261746960008201527f6f6e206665652e00000000000000000000000000000000000000000000000000602082015250565b60006123c3602783611ca5565b91506123ce82612367565b604082019050919050565b600060208201905081810360008301526123f2816123b6565b9050919050565b600061240482611a54565b915061240f83611a54565b925082820261241d81611a54565b9150828204841483151761243457612433611e46565b5b5092915050565b7f526567697374726174696f6e206665652073686f756c6420626520677265617460008201527f6572207468616e207a65726f2e00000000000000000000000000000000000000602082015250565b6000612497602d83611ca5565b91506124a28261243b565b604082019050919050565b600060208201905081810360008301526124c68161248a565b9050919050565b7f4e487b7100000000000000000000000000000000000000000000000000000000600052603260045260246000fd5b7f4e6f20656d697373696f6e732064617461207375626d6974746564206174207460008201527f68697320696e6465782e00000000000000000000000000000000000000000000602082015250565b6000612558602a83611ca5565b9150612563826124fc565b604082019050919050565b600060208201905081810360008301526125878161254b565b9050919050565b7f456d697373696f6e73206461746120616c72656164792076657269666965642e600082015250565b60006125c4602083611ca5565b91506125cf8261258e565b602082019050919050565b600060208201905081810360008301526125f3816125b7565b9050919050565b600061260582611a54565b91507fffffffffffffffffffffffffffffffffffffffffffffffffffffffffffffffff820361263757612636611e46565b5b60018201905091905056fea2646970667358221220c8b4255cd6463a1a366b9ebf71ac36b7a8125bc5e9596794d700f2d9c6a2f0bb64736f6c63430008150033",
  "immutableReferences": {},
  "source": "// SPDX-License-Identifier: GPL-3.0\r\npragma solidity ^0.8.0;\r\n\r\n/**\r\n * @title CarbonCap\r\n * @dev Manages emissions monitoring and carbon credit transactions for factories.\r\n */\r\ncontract CarbonCap {\r\n    // Structure to store emissions data for a factory\r\n    struct EmissionsData {\r\n        uint emissions; // Emissions in metric tons of carbon dioxide equivalent (MTCO2e)\r\n        bool dataSubmitted; // Indicates if emissions data is submitted\r\n        address verifier; // Address of the entity verifying the emissions data\r\n        bool verified; // Indicates if emissions data is verified\r\n        uint timestamp; // Timestamp when emissions data is recorded\r\n    }\r\n\r\n    // Structure to represent carbon credits\r\n    struct CarbonCredit {\r\n        uint amount; // Amount of carbon credits in MTCO2e\r\n        address organization; // Organization providing carbon credits\r\n    }\r\n\r\n    address payable public governmentBody;\r\n    address payable[] public registeredFactories;\r\n    address payable[] public registeredOrganizations;\r\n\r\n    mapping(address => EmissionsData[]) public factoryEmissions;\r\n    mapping(address => CarbonCredit) public availableCredits;\r\n    mapping(address => bool) public certifiedOrganizations;\r\n    mapping(address => uint) public registrationFeesPaid;\r\n    mapping(address => bool) public registrationFeePaidByOrganization; // Track if organization paid registration fee\r\n\r\n\r\n    uint public registrationFee = 1 ether;\r\n    bool public registrationFeeFinalized;\r\n\r\n    event RegistrationFeePaid(address indexed receiver,address indexed payer, uint amount);\r\n    event CreditsPurchased(address indexed buyer, address indexed organization, uint amount);\r\n\r\n    // Modifier to check if the registration fee is finalized\r\n    modifier registrationFeeIsFinalized() {\r\n        require(registrationFeeFinalized, \"Registration fee is not finalized yet.\");\r\n        _;\r\n    }\r\n\r\n    // Modifier to check if the sender is the government body\r\n    modifier onlyGovernmentBody() {\r\n        require(msg.sender == governmentBody, \"Only government body can perform this action.\");\r\n        _;\r\n    }\r\n\r\n    // Modifier to check if the sender is a registered organization\r\n    modifier onlyRegisteredOrganization() {\r\n        require(certifiedOrganizations[msg.sender], \"Only registered organizations can perform this action.\");\r\n        _;\r\n    }\r\n\r\n    // Modifier to check if the sender is a registered factory\r\n    modifier onlyRegisteredFactory() {\r\n        require(isRegisteredFactory(msg.sender), \"Only registered factories can perform this action.\");\r\n        _;\r\n    }\r\n\r\n    modifier onlyUnregisteredFactory(address factory) {\r\n    require(!isRegisteredFactory(factory), \"Factory is already registered.\");\r\n    _;\r\n}\r\nmodifier onlyUnregisteredOrganization(address organization) {\r\n    require(!certifiedOrganizations[organization], \"Organization is already certified.\");\r\n    _;\r\n}\r\n\r\n    constructor() payable {\r\n        governmentBody = payable(msg.sender);\r\n    }\r\n\r\n    // Function to register a factory by the government body\r\nfunction registerFactory(address factory) public onlyGovernmentBody onlyUnregisteredFactory(factory) {\r\n    registeredFactories.push(payable(factory));\r\n}\r\n\r\n\r\n    // Function to record emissions data by registered factories\r\n    function recordEmissions(uint emissions) public onlyRegisteredFactory {\r\n        require(emissions > 0, \"Emissions data must be greater than zero MTCO2e.\");\r\n        require(availableCredits[msg.sender].amount >= emissions, \"Insufficient available credits.\");\r\n\r\n        availableCredits[msg.sender].amount -= emissions;\r\n\r\n        factoryEmissions[msg.sender].push(EmissionsData({\r\n            emissions: emissions,\r\n            dataSubmitted: true,\r\n            verifier: address(0),\r\n            verified: false,\r\n            timestamp: block.timestamp\r\n        }));\r\n    }\r\n\r\n    // Function to verify emissions data by the government body\r\n    function verifyEmissions(address factory, uint dataIndex) public onlyGovernmentBody {\r\n        EmissionsData storage data = factoryEmissions[factory][dataIndex];\r\n        require(data.dataSubmitted, \"No emissions data submitted at this index.\");\r\n        require(!data.verified, \"Emissions data already verified.\");\r\n\r\n        data.verifier = msg.sender;\r\n        data.verified = true;\r\n    }\r\n\r\n    // Function to get the total verified emissions for a factory\r\n    function getTotalEmissions(address factory) public view returns (uint totalEmissions) {\r\n        uint emissionsCount = factoryEmissions[factory].length;\r\n        for (uint i = 0; i < emissionsCount; i++) {\r\n            if (factoryEmissions[factory][i].verified) {\r\n                totalEmissions += factoryEmissions[factory][i].emissions;\r\n            }\r\n        }\r\n    }\r\n\r\n    // Function to get available credits for a factory\r\n    function getAvailableCredits(address factory) public view returns (uint creditsAvailable) {\r\n        creditsAvailable = availableCredits[factory].amount;\r\n    }\r\n\r\n    // Function to set the registration fee by the government body\r\n    function setRegistrationFee(uint fee) external onlyGovernmentBody {\r\n        require(fee > 0, \"Registration fee should be greater than zero.\");\r\n        registrationFee = fee;\r\n        registrationFeeFinalized = true; // Marking registration fee as finalized\r\n    }\r\n\r\n    // Function for registered organizations to pay the registration fee\r\n        function payRegistrationFee() external payable onlyRegisteredOrganization {\r\n            require(!registrationFeePaidByOrganization[msg.sender], \"Registration fee already paid.\");\r\n            // require(msg.value>=registrationFee, \"Pay minimum Registration fees \");\r\n            emit RegistrationFeePaid(governmentBody,msg.sender, msg.value); // Log the registration fee payment\r\n            registrationFeesPaid[msg.sender] += msg.value; // Track the fee paid by the organization\r\n            registrationFeePaidByOrganization[msg.sender] = true; // Mark fee as paid by the organization\r\n            payable(governmentBody).transfer(msg.value); // transfer fees to goverment\r\n        }\r\n\r\n    \r\n\r\n    // Function for registered factories to buy credits from a certified organization\r\n// Function for registered factories to buy credits from a certified organization\r\nfunction buyCreditsFromOrganization(address payable organization, uint creditsAmount) external onlyRegisteredFactory {\r\n    require(certifiedOrganizations[organization], \"Organization is not certified.\");\r\n    require(creditsAmount > 0, \"Credits amount should be greater than zero.\");\r\n    require(registrationFeePaidByOrganization[organization], \"Organization must pay registration fee.\");\r\n\r\n    uint creditsPrice = creditsAmount * 2; // Calculate the price for the requested credits\r\n    // require(address(this).balance >= creditsPrice, \"Insufficient Ether balance in the contract.\");\r\n\r\n    organization.transfer(creditsPrice); // Transfer Ether (2 times the credits price) to the organization\r\n\r\n    availableCredits[msg.sender].amount += creditsAmount; // Update factory's available credits\r\n    availableCredits[msg.sender].organization = organization;\r\n\r\n    emit CreditsPurchased(msg.sender, organization, creditsAmount); // Log the purchase of credits\r\n}\r\n\r\n\r\n    // Function for the government body to withdraw Ether from the contract\r\n    function withdrawEther(uint amount) external onlyGovernmentBody {\r\n        require(amount <= address(this).balance, \"Insufficient contract balance.\");\r\n        payable(governmentBody).transfer(amount);\r\n    }\r\n\r\n    // Function for the government body to certify an organization\r\nfunction certifyOrganization(address organization) public onlyGovernmentBody onlyUnregisteredOrganization(organization) registrationFeeIsFinalized {\r\n    certifiedOrganizations[organization] = true;\r\n    registeredOrganizations.push(payable(organization));\r\n}\r\n\r\n    // Internal function to check if an address is a registered factory\r\n    function isRegisteredFactory(address _address) internal view returns (bool) {\r\n        for (uint i = 0; i < registeredFactories.length; i++) {\r\n            if (registeredFactories[i] == _address) {\r\n                return true;\r\n            }\r\n        }\r\n        return false;\r\n    }\r\n        // Function to fetch the government body address\r\n    function getGovernmentBodyAddress() public view returns (address) {\r\n        return governmentBody;\r\n    }\r\n}\r\n",
  "sourcePath": "D:\\Blockchain-Project\\carbon-cap\\contracts\\CarbonCap.sol",
  "compiler": {
    "name": "solc",
    "version": "0.8.21+commit.d9974bed.Emscripten.clang"
  },
  "schemaVersion": "3.4.16",
  "updatedAt": "2023-11-28T08:45:10.038Z",
  "networkType": "ethereum",
  "devdoc": {
    "details": "Manages emissions monitoring and carbon credit transactions for factories.",
    "kind": "dev",
    "methods": {},
    "title": "CarbonCap",
    "version": 1
  },
  "userdoc": {
    "kind": "user",
    "methods": {},
    "version": 1
  }
}